{"abi":[{"inputs":[{"internalType":"address","name":"_manager","type":"address"},{"internalType":"uint256","name":"_minimumContribution","type":"uint256"}],"stateMutability":"nonpayable","type":"constructor"},{"inputs":[{"internalType":"uint256","name":"_index","type":"uint256"}],"name":"approveRequest","outputs":[],"stateMutability":"nonpayable","type":"function"},{"inputs":[{"internalType":"address","name":"","type":"address"}],"name":"approvers","outputs":[{"internalType":"bool","name":"","type":"bool"}],"stateMutability":"view","type":"function"},{"inputs":[],"name":"approversCount","outputs":[{"internalType":"uint256","name":"","type":"uint256"}],"stateMutability":"view","type":"function"},{"inputs":[],"name":"contribute","outputs":[],"stateMutability":"payable","type":"function"},{"inputs":[{"internalType":"string","name":"_description","type":"string"},{"internalType":"address","name":"_recipient","type":"address"},{"internalType":"uint256","name":"_value","type":"uint256"}],"name":"createRequest","outputs":[],"stateMutability":"nonpayable","type":"function"},{"inputs":[{"internalType":"uint256","name":"_index","type":"uint256"}],"name":"finalizeRequest","outputs":[],"stateMutability":"nonpayable","type":"function"},{"inputs":[],"name":"getRequestsCount","outputs":[{"internalType":"uint256","name":"","type":"uint256"}],"stateMutability":"view","type":"function"},{"inputs":[],"name":"getSummary","outputs":[{"internalType":"uint256","name":"","type":"uint256"},{"internalType":"uint256","name":"","type":"uint256"},{"internalType":"uint256","name":"","type":"uint256"},{"internalType":"uint256","name":"","type":"uint256"},{"internalType":"address","name":"","type":"address"}],"stateMutability":"view","type":"function"},{"inputs":[],"name":"manager","outputs":[{"internalType":"address","name":"","type":"address"}],"stateMutability":"view","type":"function"},{"inputs":[],"name":"minimumContribution","outputs":[{"internalType":"uint256","name":"","type":"uint256"}],"stateMutability":"view","type":"function"},{"inputs":[{"internalType":"uint256","name":"","type":"uint256"}],"name":"requests","outputs":[{"internalType":"string","name":"description","type":"string"},{"internalType":"address","name":"recipient","type":"address"},{"internalType":"uint256","name":"value","type":"uint256"},{"internalType":"bool","name":"complete","type":"bool"},{"internalType":"uint256","name":"approvalsCount","type":"uint256"}],"stateMutability":"view","type":"function"}],"devdoc":{"kind":"dev","methods":{},"version":1},"evm":{"assembly":"    /* \"Campaign.sol\":466:2718  contract Campaign {... */\n  mstore(0x40, 0x80)\n    /* \"Campaign.sol\":1059:1196  constructor(address _manager, uint _minimumContribution) {... */\n  callvalue\n  dup1\n  iszero\n  tag_1\n  jumpi\n  0x00\n  dup1\n  revert\ntag_1:\n  pop\n  mload(0x40)\n  sub(codesize, bytecodeSize)\n  dup1\n  bytecodeSize\n  dup4\n  codecopy\n  dup2\n  dup2\n  add\n  0x40\n  mstore\n  dup2\n  add\n  swap1\n  tag_2\n  swap2\n  swap1\n  tag_3\n  jump\t// in\ntag_2:\n    /* \"Campaign.sol\":1133:1141  _manager */\n  dup2\n    /* \"Campaign.sol\":1123:1130  manager */\n  0x00\n  dup1\n    /* \"Campaign.sol\":1123:1141  manager = _manager */\n  0x0100\n  exp\n  dup2\n  sload\n  dup2\n  0xffffffffffffffffffffffffffffffffffffffff\n  mul\n  not\n  and\n  swap1\n  dup4\n  0xffffffffffffffffffffffffffffffffffffffff\n  and\n  mul\n  or\n  swap1\n  sstore\n  pop\n    /* \"Campaign.sol\":1170:1190  _minimumContribution */\n  dup1\n    /* \"Campaign.sol\":1148:1167  minimumContribution */\n  0x01\n    /* \"Campaign.sol\":1148:1190  minimumContribution = _minimumContribution */\n  dup2\n  swap1\n  sstore\n  pop\n    /* \"Campaign.sol\":1059:1196  constructor(address _manager, uint _minimumContribution) {... */\n  pop\n  pop\n    /* \"Campaign.sol\":466:2718  contract Campaign {... */\n  jump(tag_6)\n    /* \"#utility.yul\":88:205   */\ntag_8:\n    /* \"#utility.yul\":197:198   */\n  0x00\n    /* \"#utility.yul\":194:195   */\n  dup1\n    /* \"#utility.yul\":187:199   */\n  revert\n    /* \"#utility.yul\":334:460   */\ntag_10:\n    /* \"#utility.yul\":371:378   */\n  0x00\n    /* \"#utility.yul\":411:453   */\n  0xffffffffffffffffffffffffffffffffffffffff\n    /* \"#utility.yul\":404:409   */\n  dup3\n    /* \"#utility.yul\":400:454   */\n  and\n    /* \"#utility.yul\":389:454   */\n  swap1\n  pop\n    /* \"#utility.yul\":334:460   */\n  swap2\n  swap1\n  pop\n  jump\t// out\n    /* \"#utility.yul\":466:562   */\ntag_11:\n    /* \"#utility.yul\":503:510   */\n  0x00\n    /* \"#utility.yul\":532:556   */\n  tag_23\n    /* \"#utility.yul\":550:555   */\n  dup3\n    /* \"#utility.yul\":532:556   */\n  tag_10\n  jump\t// in\ntag_23:\n    /* \"#utility.yul\":521:556   */\n  swap1\n  pop\n    /* \"#utility.yul\":466:562   */\n  swap2\n  swap1\n  pop\n  jump\t// out\n    /* \"#utility.yul\":568:690   */\ntag_12:\n    /* \"#utility.yul\":641:665   */\n  tag_25\n    /* \"#utility.yul\":659:664   */\n  dup2\n    /* \"#utility.yul\":641:665   */\n  tag_11\n  jump\t// in\ntag_25:\n    /* \"#utility.yul\":634:639   */\n  dup2\n    /* \"#utility.yul\":631:666   */\n  eq\n    /* \"#utility.yul\":621:684   */\n  tag_26\n  jumpi\n    /* \"#utility.yul\":680:681   */\n  0x00\n    /* \"#utility.yul\":677:678   */\n  dup1\n    /* \"#utility.yul\":670:682   */\n  revert\n    /* \"#utility.yul\":621:684   */\ntag_26:\n    /* \"#utility.yul\":568:690   */\n  pop\n  jump\t// out\n    /* \"#utility.yul\":696:839   */\ntag_13:\n    /* \"#utility.yul\":753:758   */\n  0x00\n    /* \"#utility.yul\":784:790   */\n  dup2\n    /* \"#utility.yul\":778:791   */\n  mload\n    /* \"#utility.yul\":769:791   */\n  swap1\n  pop\n    /* \"#utility.yul\":800:833   */\n  tag_28\n    /* \"#utility.yul\":827:832   */\n  dup2\n    /* \"#utility.yul\":800:833   */\n  tag_12\n  jump\t// in\ntag_28:\n    /* \"#utility.yul\":696:839   */\n  swap3\n  swap2\n  pop\n  pop\n  jump\t// out\n    /* \"#utility.yul\":845:922   */\ntag_14:\n    /* \"#utility.yul\":882:889   */\n  0x00\n    /* \"#utility.yul\":911:916   */\n  dup2\n    /* \"#utility.yul\":900:916   */\n  swap1\n  pop\n    /* \"#utility.yul\":845:922   */\n  swap2\n  swap1\n  pop\n  jump\t// out\n    /* \"#utility.yul\":928:1050   */\ntag_15:\n    /* \"#utility.yul\":1001:1025   */\n  tag_31\n    /* \"#utility.yul\":1019:1024   */\n  dup2\n    /* \"#utility.yul\":1001:1025   */\n  tag_14\n  jump\t// in\ntag_31:\n    /* \"#utility.yul\":994:999   */\n  dup2\n    /* \"#utility.yul\":991:1026   */\n  eq\n    /* \"#utility.yul\":981:1044   */\n  tag_32\n  jumpi\n    /* \"#utility.yul\":1040:1041   */\n  0x00\n    /* \"#utility.yul\":1037:1038   */\n  dup1\n    /* \"#utility.yul\":1030:1042   */\n  revert\n    /* \"#utility.yul\":981:1044   */\ntag_32:\n    /* \"#utility.yul\":928:1050   */\n  pop\n  jump\t// out\n    /* \"#utility.yul\":1056:1199   */\ntag_16:\n    /* \"#utility.yul\":1113:1118   */\n  0x00\n    /* \"#utility.yul\":1144:1150   */\n  dup2\n    /* \"#utility.yul\":1138:1151   */\n  mload\n    /* \"#utility.yul\":1129:1151   */\n  swap1\n  pop\n    /* \"#utility.yul\":1160:1193   */\n  tag_34\n    /* \"#utility.yul\":1187:1192   */\n  dup2\n    /* \"#utility.yul\":1160:1193   */\n  tag_15\n  jump\t// in\ntag_34:\n    /* \"#utility.yul\":1056:1199   */\n  swap3\n  swap2\n  pop\n  pop\n  jump\t// out\n    /* \"#utility.yul\":1205:1712   */\ntag_3:\n    /* \"#utility.yul\":1284:1290   */\n  0x00\n    /* \"#utility.yul\":1292:1298   */\n  dup1\n    /* \"#utility.yul\":1341:1343   */\n  0x40\n    /* \"#utility.yul\":1329:1338   */\n  dup4\n    /* \"#utility.yul\":1320:1327   */\n  dup6\n    /* \"#utility.yul\":1316:1339   */\n  sub\n    /* \"#utility.yul\":1312:1344   */\n  slt\n    /* \"#utility.yul\":1309:1428   */\n  iszero\n  tag_36\n  jumpi\n    /* \"#utility.yul\":1347:1426   */\n  tag_37\n  tag_8\n  jump\t// in\ntag_37:\n    /* \"#utility.yul\":1309:1428   */\ntag_36:\n    /* \"#utility.yul\":1467:1468   */\n  0x00\n    /* \"#utility.yul\":1492:1556   */\n  tag_38\n    /* \"#utility.yul\":1548:1555   */\n  dup6\n    /* \"#utility.yul\":1539:1545   */\n  dup3\n    /* \"#utility.yul\":1528:1537   */\n  dup7\n    /* \"#utility.yul\":1524:1546   */\n  add\n    /* \"#utility.yul\":1492:1556   */\n  tag_13\n  jump\t// in\ntag_38:\n    /* \"#utility.yul\":1482:1556   */\n  swap3\n  pop\n    /* \"#utility.yul\":1438:1566   */\n  pop\n    /* \"#utility.yul\":1605:1607   */\n  0x20\n    /* \"#utility.yul\":1631:1695   */\n  tag_39\n    /* \"#utility.yul\":1687:1694   */\n  dup6\n    /* \"#utility.yul\":1678:1684   */\n  dup3\n    /* \"#utility.yul\":1667:1676   */\n  dup7\n    /* \"#utility.yul\":1663:1685   */\n  add\n    /* \"#utility.yul\":1631:1695   */\n  tag_16\n  jump\t// in\ntag_39:\n    /* \"#utility.yul\":1621:1695   */\n  swap2\n  pop\n    /* \"#utility.yul\":1576:1705   */\n  pop\n    /* \"#utility.yul\":1205:1712   */\n  swap3\n  pop\n  swap3\n  swap1\n  pop\n  jump\t// out\n    /* \"Campaign.sol\":466:2718  contract Campaign {... */\ntag_6:\n  dataSize(sub_0)\n  dup1\n  dataOffset(sub_0)\n  0x00\n  codecopy\n  0x00\n  return\nstop\n\nsub_0: assembly {\n        /* \"Campaign.sol\":466:2718  contract Campaign {... */\n      mstore(0x40, 0x80)\n      jumpi(tag_1, lt(calldatasize, 0x04))\n      shr(0xe0, calldataload(0x00))\n      dup1\n      0x481c6a75\n      gt\n      tag_13\n      jumpi\n      dup1\n      0x481c6a75\n      eq\n      tag_7\n      jumpi\n      dup1\n      0x81d12c58\n      eq\n      tag_8\n      jumpi\n      dup1\n      0x82fde093\n      eq\n      tag_9\n      jumpi\n      dup1\n      0x937e09b1\n      eq\n      tag_10\n      jumpi\n      dup1\n      0xd7bb99ba\n      eq\n      tag_11\n      jumpi\n      dup1\n      0xd7d1bbdb\n      eq\n      tag_12\n      jumpi\n      jump(tag_1)\n    tag_13:\n      dup1\n      0x03441006\n      eq\n      tag_2\n      jumpi\n      dup1\n      0x0a144391\n      eq\n      tag_3\n      jumpi\n      dup1\n      0x1b16bb5c\n      eq\n      tag_4\n      jumpi\n      dup1\n      0x3410452a\n      eq\n      tag_5\n      jumpi\n      dup1\n      0x4051ddac\n      eq\n      tag_6\n      jumpi\n    tag_1:\n      0x00\n      dup1\n      revert\n        /* \"Campaign.sol\":2176:2473  function finalizeRequest(uint _index) public onlyManager {... */\n    tag_2:\n      callvalue\n      dup1\n      iszero\n      tag_14\n      jumpi\n      0x00\n      dup1\n      revert\n    tag_14:\n      pop\n      tag_15\n      0x04\n      dup1\n      calldatasize\n      sub\n      dup2\n      add\n      swap1\n      tag_16\n      swap2\n      swap1\n      tag_17\n      jump\t// in\n    tag_16:\n      tag_18\n      jump\t// in\n    tag_15:\n      stop\n        /* \"Campaign.sol\":734:775  mapping(address => bool) public approvers */\n    tag_3:\n      callvalue\n      dup1\n      iszero\n      tag_19\n      jumpi\n      0x00\n      dup1\n      revert\n    tag_19:\n      pop\n      tag_20\n      0x04\n      dup1\n      calldatasize\n      sub\n      dup2\n      add\n      swap1\n      tag_21\n      swap2\n      swap1\n      tag_22\n      jump\t// in\n    tag_21:\n      tag_23\n      jump\t// in\n    tag_20:\n      mload(0x40)\n      tag_24\n      swap2\n      swap1\n      tag_25\n      jump\t// in\n    tag_24:\n      mload(0x40)\n      dup1\n      swap2\n      sub\n      swap1\n      return\n        /* \"Campaign.sol\":1512:1860  function createRequest(string memory _description, address _recipient, uint _value) public onlyManager {... */\n    tag_4:\n      callvalue\n      dup1\n      iszero\n      tag_26\n      jumpi\n      0x00\n      dup1\n      revert\n    tag_26:\n      pop\n      tag_27\n      0x04\n      dup1\n      calldatasize\n      sub\n      dup2\n      add\n      swap1\n      tag_28\n      swap2\n      swap1\n      tag_29\n      jump\t// in\n    tag_28:\n      tag_30\n      jump\t// in\n    tag_27:\n      stop\n        /* \"Campaign.sol\":1416:1506  function getRequestsCount() public view returns (uint) {... */\n    tag_5:\n      callvalue\n      dup1\n      iszero\n      tag_31\n      jumpi\n      0x00\n      dup1\n      revert\n    tag_31:\n      pop\n      tag_32\n      tag_33\n      jump\t// in\n    tag_32:\n      mload(0x40)\n      tag_34\n      swap2\n      swap1\n      tag_35\n      jump\t// in\n    tag_34:\n      mload(0x40)\n      dup1\n      swap2\n      sub\n      swap1\n      return\n        /* \"Campaign.sol\":2479:2713  function getSummary() public view returns (... */\n    tag_6:\n      callvalue\n      dup1\n      iszero\n      tag_36\n      jumpi\n      0x00\n      dup1\n      revert\n    tag_36:\n      pop\n      tag_37\n      tag_38\n      jump\t// in\n    tag_37:\n      mload(0x40)\n      tag_39\n      swap6\n      swap5\n      swap4\n      swap3\n      swap2\n      swap1\n      tag_40\n      jump\t// in\n    tag_39:\n      mload(0x40)\n      dup1\n      swap2\n      sub\n      swap1\n      return\n        /* \"Campaign.sol\":671:693  address public manager */\n    tag_7:\n      callvalue\n      dup1\n      iszero\n      tag_41\n      jumpi\n      0x00\n      dup1\n      revert\n    tag_41:\n      pop\n      tag_42\n      tag_43\n      jump\t// in\n    tag_42:\n      mload(0x40)\n      tag_44\n      swap2\n      swap1\n      tag_45\n      jump\t// in\n    tag_44:\n      mload(0x40)\n      dup1\n      swap2\n      sub\n      swap1\n      return\n        /* \"Campaign.sol\":811:836  Request[] public requests */\n    tag_8:\n      callvalue\n      dup1\n      iszero\n      tag_46\n      jumpi\n      0x00\n      dup1\n      revert\n    tag_46:\n      pop\n      tag_47\n      0x04\n      dup1\n      calldatasize\n      sub\n      dup2\n      add\n      swap1\n      tag_48\n      swap2\n      swap1\n      tag_17\n      jump\t// in\n    tag_48:\n      tag_49\n      jump\t// in\n    tag_47:\n      mload(0x40)\n      tag_50\n      swap6\n      swap5\n      swap4\n      swap3\n      swap2\n      swap1\n      tag_51\n      jump\t// in\n    tag_50:\n      mload(0x40)\n      dup1\n      swap2\n      sub\n      swap1\n      return\n        /* \"Campaign.sol\":780:806  uint public approversCount */\n    tag_9:\n      callvalue\n      dup1\n      iszero\n      tag_52\n      jumpi\n      0x00\n      dup1\n      revert\n    tag_52:\n      pop\n      tag_53\n      tag_54\n      jump\t// in\n    tag_53:\n      mload(0x40)\n      tag_55\n      swap2\n      swap1\n      tag_35\n      jump\t// in\n    tag_55:\n      mload(0x40)\n      dup1\n      swap2\n      sub\n      swap1\n      return\n        /* \"Campaign.sol\":698:729  uint public minimumContribution */\n    tag_10:\n      callvalue\n      dup1\n      iszero\n      tag_56\n      jumpi\n      0x00\n      dup1\n      revert\n    tag_56:\n      pop\n      tag_57\n      tag_58\n      jump\t// in\n    tag_57:\n      mload(0x40)\n      tag_59\n      swap2\n      swap1\n      tag_35\n      jump\t// in\n    tag_59:\n      mload(0x40)\n      dup1\n      swap2\n      sub\n      swap1\n      return\n        /* \"Campaign.sol\":1202:1410  function contribute() public payable notManager {... */\n    tag_11:\n      tag_60\n      tag_61\n      jump\t// in\n    tag_60:\n      stop\n        /* \"Campaign.sol\":1866:2170  function approveRequest(uint _index) public notManager {... */\n    tag_12:\n      callvalue\n      dup1\n      iszero\n      tag_62\n      jumpi\n      0x00\n      dup1\n      revert\n    tag_62:\n      pop\n      tag_63\n      0x04\n      dup1\n      calldatasize\n      sub\n      dup2\n      add\n      swap1\n      tag_64\n      swap2\n      swap1\n      tag_17\n      jump\t// in\n    tag_64:\n      tag_65\n      jump\t// in\n    tag_63:\n      stop\n        /* \"Campaign.sol\":2176:2473  function finalizeRequest(uint _index) public onlyManager {... */\n    tag_18:\n        /* \"Campaign.sol\":892:902  msg.sender */\n      caller\n        /* \"Campaign.sol\":881:902  manager == msg.sender */\n      0xffffffffffffffffffffffffffffffffffffffff\n      and\n        /* \"Campaign.sol\":881:888  manager */\n      0x00\n      dup1\n      sload\n      swap1\n      0x0100\n      exp\n      swap1\n      div\n      0xffffffffffffffffffffffffffffffffffffffff\n      and\n        /* \"Campaign.sol\":881:902  manager == msg.sender */\n      0xffffffffffffffffffffffffffffffffffffffff\n      and\n      eq\n        /* \"Campaign.sol\":873:930  require(manager == msg.sender, 'Only manager can access') */\n      tag_67\n      jumpi\n      mload(0x40)\n      0x08c379a000000000000000000000000000000000000000000000000000000000\n      dup2\n      mstore\n      0x04\n      add\n      tag_68\n      swap1\n      tag_69\n      jump\t// in\n    tag_68:\n      mload(0x40)\n      dup1\n      swap2\n      sub\n      swap1\n      revert\n    tag_67:\n        /* \"Campaign.sol\":2240:2263  Request storage request */\n      0x00\n        /* \"Campaign.sol\":2266:2274  requests */\n      0x04\n        /* \"Campaign.sol\":2275:2281  _index */\n      dup3\n        /* \"Campaign.sol\":2266:2282  requests[_index] */\n      dup2\n      sload\n      dup2\n      lt\n      tag_71\n      jumpi\n      tag_72\n      tag_73\n      jump\t// in\n    tag_72:\n    tag_71:\n      swap1\n      0x00\n      mstore\n      keccak256(0x00, 0x20)\n      swap1\n      0x06\n      mul\n      add\n        /* \"Campaign.sol\":2240:2282  Request storage request = requests[_index] */\n      swap1\n      pop\n        /* \"Campaign.sol\":2300:2307  request */\n      dup1\n        /* \"Campaign.sol\":2300:2316  request.complete */\n      0x03\n      add\n      0x00\n      swap1\n      sload\n      swap1\n      0x0100\n      exp\n      swap1\n      div\n      0xff\n      and\n        /* \"Campaign.sol\":2299:2316  !request.complete */\n      iszero\n        /* \"Campaign.sol\":2291:2317  require(!request.complete) */\n      tag_75\n      jumpi\n      0x00\n      dup1\n      revert\n    tag_75:\n        /* \"Campaign.sol\":2375:2376  2 */\n      0x02\n        /* \"Campaign.sol\":2358:2372  approversCount */\n      sload(0x03)\n        /* \"Campaign.sol\":2358:2376  approversCount / 2 */\n      tag_76\n      swap2\n      swap1\n      tag_77\n      jump\t// in\n    tag_76:\n        /* \"Campaign.sol\":2332:2339  request */\n      dup2\n        /* \"Campaign.sol\":2332:2354  request.approvalsCount */\n      0x05\n      add\n      sload\n        /* \"Campaign.sol\":2332:2377  request.approvalsCount > (approversCount / 2) */\n      gt\n        /* \"Campaign.sol\":2324:2378  require(request.approvalsCount > (approversCount / 2)) */\n      tag_78\n      jumpi\n      0x00\n      dup1\n      revert\n    tag_78:\n        /* \"Campaign.sol\":2395:2402  request */\n      dup1\n        /* \"Campaign.sol\":2395:2412  request.recipient */\n      0x01\n      add\n      0x00\n      swap1\n      sload\n      swap1\n      0x0100\n      exp\n      swap1\n      div\n      0xffffffffffffffffffffffffffffffffffffffff\n      and\n        /* \"Campaign.sol\":2387:2422  payable(request.recipient).transfer */\n      0xffffffffffffffffffffffffffffffffffffffff\n      and\n        /* \"Campaign.sol\":2387:2437  payable(request.recipient).transfer(request.value) */\n      0x08fc\n        /* \"Campaign.sol\":2423:2430  request */\n      dup3\n        /* \"Campaign.sol\":2423:2436  request.value */\n      0x02\n      add\n      sload\n        /* \"Campaign.sol\":2387:2437  payable(request.recipient).transfer(request.value) */\n      swap1\n      dup2\n      iszero\n      mul\n      swap1\n      mload(0x40)\n      0x00\n      mload(0x40)\n      dup1\n      dup4\n      sub\n      dup2\n      dup6\n      dup9\n      dup9\n      call\n      swap4\n      pop\n      pop\n      pop\n      pop\n      iszero\n      dup1\n      iszero\n      tag_80\n      jumpi\n      returndatasize\n      0x00\n      dup1\n      returndatacopy\n      revert(0x00, returndatasize)\n    tag_80:\n      pop\n        /* \"Campaign.sol\":2463:2467  true */\n      0x01\n        /* \"Campaign.sol\":2444:2451  request */\n      dup2\n        /* \"Campaign.sol\":2444:2460  request.complete */\n      0x03\n      add\n      0x00\n        /* \"Campaign.sol\":2444:2467  request.complete = true */\n      0x0100\n      exp\n      dup2\n      sload\n      dup2\n      0xff\n      mul\n      not\n      and\n      swap1\n      dup4\n      iszero\n      iszero\n      mul\n      or\n      swap1\n      sstore\n      pop\n        /* \"Campaign.sol\":2233:2473  {... */\n      pop\n        /* \"Campaign.sol\":2176:2473  function finalizeRequest(uint _index) public onlyManager {... */\n      pop\n      jump\t// out\n        /* \"Campaign.sol\":734:775  mapping(address => bool) public approvers */\n    tag_23:\n      mstore(0x20, 0x02)\n      dup1\n      0x00\n      mstore\n      keccak256(0x00, 0x40)\n      0x00\n      swap2\n      pop\n      sload\n      swap1\n      0x0100\n      exp\n      swap1\n      div\n      0xff\n      and\n      dup2\n      jump\t// out\n        /* \"Campaign.sol\":1512:1860  function createRequest(string memory _description, address _recipient, uint _value) public onlyManager {... */\n    tag_30:\n        /* \"Campaign.sol\":892:902  msg.sender */\n      caller\n        /* \"Campaign.sol\":881:902  manager == msg.sender */\n      0xffffffffffffffffffffffffffffffffffffffff\n      and\n        /* \"Campaign.sol\":881:888  manager */\n      0x00\n      dup1\n      sload\n      swap1\n      0x0100\n      exp\n      swap1\n      div\n      0xffffffffffffffffffffffffffffffffffffffff\n      and\n        /* \"Campaign.sol\":881:902  manager == msg.sender */\n      0xffffffffffffffffffffffffffffffffffffffff\n      and\n      eq\n        /* \"Campaign.sol\":873:930  require(manager == msg.sender, 'Only manager can access') */\n      tag_82\n      jumpi\n      mload(0x40)\n      0x08c379a000000000000000000000000000000000000000000000000000000000\n      dup2\n      mstore\n      0x04\n      add\n      tag_83\n      swap1\n      tag_69\n      jump\t// in\n    tag_83:\n      mload(0x40)\n      dup1\n      swap2\n      sub\n      swap1\n      revert\n    tag_82:\n        /* \"Campaign.sol\":1622:1648  Request storage newRequest */\n      0x00\n        /* \"Campaign.sol\":1651:1659  requests */\n      0x04\n        /* \"Campaign.sol\":1651:1666  requests.push() */\n      0x01\n      dup2\n      0x01\n      dup2\n      sload\n      add\n      dup1\n      dup3\n      sstore\n      dup1\n      swap2\n      pop\n      pop\n      sub\n      swap1\n      0x00\n      mstore\n      keccak256(0x00, 0x20)\n      swap1\n      0x06\n      mul\n      add\n        /* \"Campaign.sol\":1622:1666  Request storage newRequest = requests.push() */\n      swap1\n      pop\n        /* \"Campaign.sol\":1700:1712  _description */\n      dup4\n        /* \"Campaign.sol\":1675:1685  newRequest */\n      dup2\n        /* \"Campaign.sol\":1675:1697  newRequest.description */\n      0x00\n      add\n        /* \"Campaign.sol\":1675:1712  newRequest.description = _description */\n      swap1\n      dup1\n      mload\n      swap1\n      0x20\n      add\n      swap1\n      tag_86\n      swap3\n      swap2\n      swap1\n      tag_87\n      jump\t// in\n    tag_86:\n      pop\n        /* \"Campaign.sol\":1742:1752  _recipient */\n      dup3\n        /* \"Campaign.sol\":1719:1729  newRequest */\n      dup2\n        /* \"Campaign.sol\":1719:1739  newRequest.recipient */\n      0x01\n      add\n      0x00\n        /* \"Campaign.sol\":1719:1752  newRequest.recipient = _recipient */\n      0x0100\n      exp\n      dup2\n      sload\n      dup2\n      0xffffffffffffffffffffffffffffffffffffffff\n      mul\n      not\n      and\n      swap1\n      dup4\n      0xffffffffffffffffffffffffffffffffffffffff\n      and\n      mul\n      or\n      swap1\n      sstore\n      pop\n        /* \"Campaign.sol\":1778:1784  _value */\n      dup2\n        /* \"Campaign.sol\":1759:1769  newRequest */\n      dup2\n        /* \"Campaign.sol\":1759:1775  newRequest.value */\n      0x02\n      add\n        /* \"Campaign.sol\":1759:1784  newRequest.value = _value */\n      dup2\n      swap1\n      sstore\n      pop\n        /* \"Campaign.sol\":1813:1818  false */\n      0x00\n        /* \"Campaign.sol\":1791:1801  newRequest */\n      dup2\n        /* \"Campaign.sol\":1791:1810  newRequest.complete */\n      0x03\n      add\n      0x00\n        /* \"Campaign.sol\":1791:1818  newRequest.complete = false */\n      0x0100\n      exp\n      dup2\n      sload\n      dup2\n      0xff\n      mul\n      not\n      and\n      swap1\n      dup4\n      iszero\n      iszero\n      mul\n      or\n      swap1\n      sstore\n      pop\n        /* \"Campaign.sol\":1853:1854  0 */\n      0x00\n        /* \"Campaign.sol\":1825:1835  newRequest */\n      dup2\n        /* \"Campaign.sol\":1825:1850  newRequest.approvalsCount */\n      0x05\n      add\n        /* \"Campaign.sol\":1825:1854  newRequest.approvalsCount = 0 */\n      dup2\n      swap1\n      sstore\n      pop\n        /* \"Campaign.sol\":1615:1860  {... */\n      pop\n        /* \"Campaign.sol\":1512:1860  function createRequest(string memory _description, address _recipient, uint _value) public onlyManager {... */\n      pop\n      pop\n      pop\n      jump\t// out\n        /* \"Campaign.sol\":1416:1506  function getRequestsCount() public view returns (uint) {... */\n    tag_33:\n        /* \"Campaign.sol\":1465:1469  uint */\n      0x00\n        /* \"Campaign.sol\":1485:1493  requests */\n      0x04\n        /* \"Campaign.sol\":1485:1500  requests.length */\n      dup1\n      sload\n      swap1\n      pop\n        /* \"Campaign.sol\":1478:1500  return requests.length */\n      swap1\n      pop\n        /* \"Campaign.sol\":1416:1506  function getRequestsCount() public view returns (uint) {... */\n      swap1\n      jump\t// out\n        /* \"Campaign.sol\":2479:2713  function getSummary() public view returns (... */\n    tag_38:\n        /* \"Campaign.sol\":2528:2532  uint */\n      0x00\n        /* \"Campaign.sol\":2534:2538  uint */\n      dup1\n        /* \"Campaign.sol\":2540:2544  uint */\n      0x00\n        /* \"Campaign.sol\":2546:2550  uint */\n      dup1\n        /* \"Campaign.sol\":2552:2559  address */\n      0x00\n        /* \"Campaign.sol\":2588:2607  minimumContribution */\n      sload(0x01)\n        /* \"Campaign.sol\":2616:2637  address(this).balance */\n      selfbalance\n        /* \"Campaign.sol\":2646:2654  requests */\n      0x04\n        /* \"Campaign.sol\":2646:2661  requests.length */\n      dup1\n      sload\n      swap1\n      pop\n        /* \"Campaign.sol\":2670:2684  approversCount */\n      sload(0x03)\n        /* \"Campaign.sol\":2693:2700  manager */\n      0x00\n      dup1\n      sload\n      swap1\n      0x0100\n      exp\n      swap1\n      div\n      0xffffffffffffffffffffffffffffffffffffffff\n      and\n        /* \"Campaign.sol\":2572:2707  return (... */\n      swap5\n      pop\n      swap5\n      pop\n      swap5\n      pop\n      swap5\n      pop\n      swap5\n      pop\n        /* \"Campaign.sol\":2479:2713  function getSummary() public view returns (... */\n      swap1\n      swap2\n      swap3\n      swap4\n      swap5\n      jump\t// out\n        /* \"Campaign.sol\":671:693  address public manager */\n    tag_43:\n      0x00\n      dup1\n      sload\n      swap1\n      0x0100\n      exp\n      swap1\n      div\n      0xffffffffffffffffffffffffffffffffffffffff\n      and\n      dup2\n      jump\t// out\n        /* \"Campaign.sol\":811:836  Request[] public requests */\n    tag_49:\n      0x04\n      dup2\n      dup2\n      sload\n      dup2\n      lt\n      tag_90\n      jumpi\n      0x00\n      dup1\n      revert\n    tag_90:\n      swap1\n      0x00\n      mstore\n      keccak256(0x00, 0x20)\n      swap1\n      0x06\n      mul\n      add\n      0x00\n      swap2\n      pop\n      swap1\n      pop\n      dup1\n      0x00\n      add\n      dup1\n      sload\n      tag_92\n      swap1\n      tag_93\n      jump\t// in\n    tag_92:\n      dup1\n      0x1f\n      add\n      0x20\n      dup1\n      swap2\n      div\n      mul\n      0x20\n      add\n      mload(0x40)\n      swap1\n      dup2\n      add\n      0x40\n      mstore\n      dup1\n      swap3\n      swap2\n      swap1\n      dup2\n      dup2\n      mstore\n      0x20\n      add\n      dup3\n      dup1\n      sload\n      tag_94\n      swap1\n      tag_93\n      jump\t// in\n    tag_94:\n      dup1\n      iszero\n      tag_95\n      jumpi\n      dup1\n      0x1f\n      lt\n      tag_96\n      jumpi\n      0x0100\n      dup1\n      dup4\n      sload\n      div\n      mul\n      dup4\n      mstore\n      swap2\n      0x20\n      add\n      swap2\n      jump(tag_95)\n    tag_96:\n      dup3\n      add\n      swap2\n      swap1\n      0x00\n      mstore\n      keccak256(0x00, 0x20)\n      swap1\n    tag_97:\n      dup2\n      sload\n      dup2\n      mstore\n      swap1\n      0x01\n      add\n      swap1\n      0x20\n      add\n      dup1\n      dup4\n      gt\n      tag_97\n      jumpi\n      dup3\n      swap1\n      sub\n      0x1f\n      and\n      dup3\n      add\n      swap2\n    tag_95:\n      pop\n      pop\n      pop\n      pop\n      pop\n      swap1\n      dup1\n      0x01\n      add\n      0x00\n      swap1\n      sload\n      swap1\n      0x0100\n      exp\n      swap1\n      div\n      0xffffffffffffffffffffffffffffffffffffffff\n      and\n      swap1\n      dup1\n      0x02\n      add\n      sload\n      swap1\n      dup1\n      0x03\n      add\n      0x00\n      swap1\n      sload\n      swap1\n      0x0100\n      exp\n      swap1\n      div\n      0xff\n      and\n      swap1\n      dup1\n      0x05\n      add\n      sload\n      swap1\n      pop\n      dup6\n      jump\t// out\n        /* \"Campaign.sol\":780:806  uint public approversCount */\n    tag_54:\n      sload(0x03)\n      dup2\n      jump\t// out\n        /* \"Campaign.sol\":698:729  uint public minimumContribution */\n    tag_58:\n      sload(0x01)\n      dup2\n      jump\t// out\n        /* \"Campaign.sol\":1202:1410  function contribute() public payable notManager {... */\n    tag_61:\n        /* \"Campaign.sol\":998:1008  msg.sender */\n      caller\n        /* \"Campaign.sol\":987:1008  manager != msg.sender */\n      0xffffffffffffffffffffffffffffffffffffffff\n      and\n        /* \"Campaign.sol\":987:994  manager */\n      0x00\n      dup1\n      sload\n      swap1\n      0x0100\n      exp\n      swap1\n      div\n      0xffffffffffffffffffffffffffffffffffffffff\n      and\n        /* \"Campaign.sol\":987:1008  manager != msg.sender */\n      0xffffffffffffffffffffffffffffffffffffffff\n      and\n      sub\n        /* \"Campaign.sol\":979:1039  require(manager != msg.sender, 'The manager can not access') */\n      tag_99\n      jumpi\n      mload(0x40)\n      0x08c379a000000000000000000000000000000000000000000000000000000000\n      dup2\n      mstore\n      0x04\n      add\n      tag_100\n      swap1\n      tag_101\n      jump\t// in\n    tag_100:\n      mload(0x40)\n      dup1\n      swap2\n      sub\n      swap1\n      revert\n    tag_99:\n        /* \"Campaign.sol\":1288:1297  msg.value */\n      callvalue\n        /* \"Campaign.sol\":1265:1284  minimumContribution */\n      sload(0x01)\n        /* \"Campaign.sol\":1265:1297  minimumContribution <= msg.value */\n      gt\n      iszero\n        /* \"Campaign.sol\":1257:1298  require(minimumContribution <= msg.value) */\n      tag_103\n      jumpi\n      0x00\n      dup1\n      revert\n    tag_103:\n        /* \"Campaign.sol\":1312:1321  approvers */\n      0x02\n        /* \"Campaign.sol\":1312:1333  approvers[msg.sender] */\n      0x00\n        /* \"Campaign.sol\":1322:1332  msg.sender */\n      caller\n        /* \"Campaign.sol\":1312:1333  approvers[msg.sender] */\n      0xffffffffffffffffffffffffffffffffffffffff\n      and\n      0xffffffffffffffffffffffffffffffffffffffff\n      and\n      dup2\n      mstore\n      0x20\n      add\n      swap1\n      dup2\n      mstore\n      0x20\n      add\n      0x00\n      keccak256\n      0x00\n      swap1\n      sload\n      swap1\n      0x0100\n      exp\n      swap1\n      div\n      0xff\n      and\n        /* \"Campaign.sol\":1307:1405  if (!approvers[msg.sender]) {... */\n      tag_104\n      jumpi\n        /* \"Campaign.sol\":1368:1372  true */\n      0x01\n        /* \"Campaign.sol\":1344:1353  approvers */\n      0x02\n        /* \"Campaign.sol\":1344:1365  approvers[msg.sender] */\n      0x00\n        /* \"Campaign.sol\":1354:1364  msg.sender */\n      caller\n        /* \"Campaign.sol\":1344:1365  approvers[msg.sender] */\n      0xffffffffffffffffffffffffffffffffffffffff\n      and\n      0xffffffffffffffffffffffffffffffffffffffff\n      and\n      dup2\n      mstore\n      0x20\n      add\n      swap1\n      dup2\n      mstore\n      0x20\n      add\n      0x00\n      keccak256\n      0x00\n        /* \"Campaign.sol\":1344:1372  approvers[msg.sender] = true */\n      0x0100\n      exp\n      dup2\n      sload\n      dup2\n      0xff\n      mul\n      not\n      and\n      swap1\n      dup4\n      iszero\n      iszero\n      mul\n      or\n      swap1\n      sstore\n      pop\n        /* \"Campaign.sol\":1381:1395  approversCount */\n      0x03\n      0x00\n        /* \"Campaign.sol\":1381:1397  approversCount++ */\n      dup2\n      sload\n      dup1\n      swap3\n      swap2\n      swap1\n      tag_105\n      swap1\n      tag_106\n      jump\t// in\n    tag_105:\n      swap2\n      swap1\n      pop\n      sstore\n      pop\n        /* \"Campaign.sol\":1307:1405  if (!approvers[msg.sender]) {... */\n    tag_104:\n        /* \"Campaign.sol\":1202:1410  function contribute() public payable notManager {... */\n      jump\t// out\n        /* \"Campaign.sol\":1866:2170  function approveRequest(uint _index) public notManager {... */\n    tag_65:\n        /* \"Campaign.sol\":998:1008  msg.sender */\n      caller\n        /* \"Campaign.sol\":987:1008  manager != msg.sender */\n      0xffffffffffffffffffffffffffffffffffffffff\n      and\n        /* \"Campaign.sol\":987:994  manager */\n      0x00\n      dup1\n      sload\n      swap1\n      0x0100\n      exp\n      swap1\n      div\n      0xffffffffffffffffffffffffffffffffffffffff\n      and\n        /* \"Campaign.sol\":987:1008  manager != msg.sender */\n      0xffffffffffffffffffffffffffffffffffffffff\n      and\n      sub\n        /* \"Campaign.sol\":979:1039  require(manager != msg.sender, 'The manager can not access') */\n      tag_108\n      jumpi\n      mload(0x40)\n      0x08c379a000000000000000000000000000000000000000000000000000000000\n      dup2\n      mstore\n      0x04\n      add\n      tag_109\n      swap1\n      tag_101\n      jump\t// in\n    tag_109:\n      mload(0x40)\n      dup1\n      swap2\n      sub\n      swap1\n      revert\n    tag_108:\n        /* \"Campaign.sol\":1928:1951  Request storage request */\n      0x00\n        /* \"Campaign.sol\":1954:1962  requests */\n      0x04\n        /* \"Campaign.sol\":1963:1969  _index */\n      dup3\n        /* \"Campaign.sol\":1954:1970  requests[_index] */\n      dup2\n      sload\n      dup2\n      lt\n      tag_111\n      jumpi\n      tag_112\n      tag_73\n      jump\t// in\n    tag_112:\n    tag_111:\n      swap1\n      0x00\n      mstore\n      keccak256(0x00, 0x20)\n      swap1\n      0x06\n      mul\n      add\n        /* \"Campaign.sol\":1928:1970  Request storage request = requests[_index] */\n      swap1\n      pop\n        /* \"Campaign.sol\":1987:1996  approvers */\n      0x02\n        /* \"Campaign.sol\":1987:2008  approvers[msg.sender] */\n      0x00\n        /* \"Campaign.sol\":1997:2007  msg.sender */\n      caller\n        /* \"Campaign.sol\":1987:2008  approvers[msg.sender] */\n      0xffffffffffffffffffffffffffffffffffffffff\n      and\n      0xffffffffffffffffffffffffffffffffffffffff\n      and\n      dup2\n      mstore\n      0x20\n      add\n      swap1\n      dup2\n      mstore\n      0x20\n      add\n      0x00\n      keccak256\n      0x00\n      swap1\n      sload\n      swap1\n      0x0100\n      exp\n      swap1\n      div\n      0xff\n      and\n        /* \"Campaign.sol\":1979:2009  require(approvers[msg.sender]) */\n      tag_114\n      jumpi\n      0x00\n      dup1\n      revert\n    tag_114:\n        /* \"Campaign.sol\":2025:2032  request */\n      dup1\n        /* \"Campaign.sol\":2025:2041  request.complete */\n      0x03\n      add\n      0x00\n      swap1\n      sload\n      swap1\n      0x0100\n      exp\n      swap1\n      div\n      0xff\n      and\n        /* \"Campaign.sol\":2024:2041  !request.complete */\n      iszero\n        /* \"Campaign.sol\":2016:2042  require(!request.complete) */\n      tag_115\n      jumpi\n      0x00\n      dup1\n      revert\n    tag_115:\n        /* \"Campaign.sol\":2058:2065  request */\n      dup1\n        /* \"Campaign.sol\":2058:2075  request.approvals */\n      0x04\n      add\n        /* \"Campaign.sol\":2058:2087  request.approvals[msg.sender] */\n      0x00\n        /* \"Campaign.sol\":2076:2086  msg.sender */\n      caller\n        /* \"Campaign.sol\":2058:2087  request.approvals[msg.sender] */\n      0xffffffffffffffffffffffffffffffffffffffff\n      and\n      0xffffffffffffffffffffffffffffffffffffffff\n      and\n      dup2\n      mstore\n      0x20\n      add\n      swap1\n      dup2\n      mstore\n      0x20\n      add\n      0x00\n      keccak256\n      0x00\n      swap1\n      sload\n      swap1\n      0x0100\n      exp\n      swap1\n      div\n      0xff\n      and\n        /* \"Campaign.sol\":2057:2087  !request.approvals[msg.sender] */\n      iszero\n        /* \"Campaign.sol\":2049:2088  require(!request.approvals[msg.sender]) */\n      tag_116\n      jumpi\n      0x00\n      dup1\n      revert\n    tag_116:\n        /* \"Campaign.sol\":2129:2133  true */\n      0x01\n        /* \"Campaign.sol\":2097:2104  request */\n      dup2\n        /* \"Campaign.sol\":2097:2114  request.approvals */\n      0x04\n      add\n        /* \"Campaign.sol\":2097:2126  request.approvals[msg.sender] */\n      0x00\n        /* \"Campaign.sol\":2115:2125  msg.sender */\n      caller\n        /* \"Campaign.sol\":2097:2126  request.approvals[msg.sender] */\n      0xffffffffffffffffffffffffffffffffffffffff\n      and\n      0xffffffffffffffffffffffffffffffffffffffff\n      and\n      dup2\n      mstore\n      0x20\n      add\n      swap1\n      dup2\n      mstore\n      0x20\n      add\n      0x00\n      keccak256\n      0x00\n        /* \"Campaign.sol\":2097:2133  request.approvals[msg.sender] = true */\n      0x0100\n      exp\n      dup2\n      sload\n      dup2\n      0xff\n      mul\n      not\n      and\n      swap1\n      dup4\n      iszero\n      iszero\n      mul\n      or\n      swap1\n      sstore\n      pop\n        /* \"Campaign.sol\":2140:2147  request */\n      dup1\n        /* \"Campaign.sol\":2140:2162  request.approvalsCount */\n      0x05\n      add\n      0x00\n        /* \"Campaign.sol\":2140:2164  request.approvalsCount++ */\n      dup2\n      sload\n      dup1\n      swap3\n      swap2\n      swap1\n      tag_117\n      swap1\n      tag_106\n      jump\t// in\n    tag_117:\n      swap2\n      swap1\n      pop\n      sstore\n      pop\n        /* \"Campaign.sol\":1921:2170  {... */\n      pop\n        /* \"Campaign.sol\":1866:2170  function approveRequest(uint _index) public notManager {... */\n      pop\n      jump\t// out\n    tag_87:\n      dup3\n      dup1\n      sload\n      tag_118\n      swap1\n      tag_93\n      jump\t// in\n    tag_118:\n      swap1\n      0x00\n      mstore\n      keccak256(0x00, 0x20)\n      swap1\n      0x1f\n      add\n      0x20\n      swap1\n      div\n      dup2\n      add\n      swap3\n      dup3\n      tag_120\n      jumpi\n      0x00\n      dup6\n      sstore\n      jump(tag_119)\n    tag_120:\n      dup3\n      0x1f\n      lt\n      tag_121\n      jumpi\n      dup1\n      mload\n      not(0xff)\n      and\n      dup4\n      dup1\n      add\n      or\n      dup6\n      sstore\n      jump(tag_119)\n    tag_121:\n      dup3\n      dup1\n      add\n      0x01\n      add\n      dup6\n      sstore\n      dup3\n      iszero\n      tag_119\n      jumpi\n      swap2\n      dup3\n      add\n    tag_122:\n      dup3\n      dup2\n      gt\n      iszero\n      tag_123\n      jumpi\n      dup3\n      mload\n      dup3\n      sstore\n      swap2\n      0x20\n      add\n      swap2\n      swap1\n      0x01\n      add\n      swap1\n      jump(tag_122)\n    tag_123:\n    tag_119:\n      pop\n      swap1\n      pop\n      tag_124\n      swap2\n      swap1\n      tag_125\n      jump\t// in\n    tag_124:\n      pop\n      swap1\n      jump\t// out\n    tag_125:\n    tag_126:\n      dup1\n      dup3\n      gt\n      iszero\n      tag_127\n      jumpi\n      0x00\n      dup2\n      0x00\n      swap1\n      sstore\n      pop\n      0x01\n      add\n      jump(tag_126)\n    tag_127:\n      pop\n      swap1\n      jump\t// out\n        /* \"#utility.yul\":7:82   */\n    tag_128:\n        /* \"#utility.yul\":40:46   */\n      0x00\n        /* \"#utility.yul\":73:75   */\n      0x40\n        /* \"#utility.yul\":67:76   */\n      mload\n        /* \"#utility.yul\":57:76   */\n      swap1\n      pop\n        /* \"#utility.yul\":7:82   */\n      swap1\n      jump\t// out\n        /* \"#utility.yul\":88:205   */\n    tag_129:\n        /* \"#utility.yul\":197:198   */\n      0x00\n        /* \"#utility.yul\":194:195   */\n      dup1\n        /* \"#utility.yul\":187:199   */\n      revert\n        /* \"#utility.yul\":211:328   */\n    tag_130:\n        /* \"#utility.yul\":320:321   */\n      0x00\n        /* \"#utility.yul\":317:318   */\n      dup1\n        /* \"#utility.yul\":310:322   */\n      revert\n        /* \"#utility.yul\":334:411   */\n    tag_131:\n        /* \"#utility.yul\":371:378   */\n      0x00\n        /* \"#utility.yul\":400:405   */\n      dup2\n        /* \"#utility.yul\":389:405   */\n      swap1\n      pop\n        /* \"#utility.yul\":334:411   */\n      swap2\n      swap1\n      pop\n      jump\t// out\n        /* \"#utility.yul\":417:539   */\n    tag_132:\n        /* \"#utility.yul\":490:514   */\n      tag_169\n        /* \"#utility.yul\":508:513   */\n      dup2\n        /* \"#utility.yul\":490:514   */\n      tag_131\n      jump\t// in\n    tag_169:\n        /* \"#utility.yul\":483:488   */\n      dup2\n        /* \"#utility.yul\":480:515   */\n      eq\n        /* \"#utility.yul\":470:533   */\n      tag_170\n      jumpi\n        /* \"#utility.yul\":529:530   */\n      0x00\n        /* \"#utility.yul\":526:527   */\n      dup1\n        /* \"#utility.yul\":519:531   */\n      revert\n        /* \"#utility.yul\":470:533   */\n    tag_170:\n        /* \"#utility.yul\":417:539   */\n      pop\n      jump\t// out\n        /* \"#utility.yul\":545:684   */\n    tag_133:\n        /* \"#utility.yul\":591:596   */\n      0x00\n        /* \"#utility.yul\":629:635   */\n      dup2\n        /* \"#utility.yul\":616:636   */\n      calldataload\n        /* \"#utility.yul\":607:636   */\n      swap1\n      pop\n        /* \"#utility.yul\":645:678   */\n      tag_172\n        /* \"#utility.yul\":672:677   */\n      dup2\n        /* \"#utility.yul\":645:678   */\n      tag_132\n      jump\t// in\n    tag_172:\n        /* \"#utility.yul\":545:684   */\n      swap3\n      swap2\n      pop\n      pop\n      jump\t// out\n        /* \"#utility.yul\":690:1019   */\n    tag_17:\n        /* \"#utility.yul\":749:755   */\n      0x00\n        /* \"#utility.yul\":798:800   */\n      0x20\n        /* \"#utility.yul\":786:795   */\n      dup3\n        /* \"#utility.yul\":777:784   */\n      dup5\n        /* \"#utility.yul\":773:796   */\n      sub\n        /* \"#utility.yul\":769:801   */\n      slt\n        /* \"#utility.yul\":766:885   */\n      iszero\n      tag_174\n      jumpi\n        /* \"#utility.yul\":804:883   */\n      tag_175\n      tag_129\n      jump\t// in\n    tag_175:\n        /* \"#utility.yul\":766:885   */\n    tag_174:\n        /* \"#utility.yul\":924:925   */\n      0x00\n        /* \"#utility.yul\":949:1002   */\n      tag_176\n        /* \"#utility.yul\":994:1001   */\n      dup5\n        /* \"#utility.yul\":985:991   */\n      dup3\n        /* \"#utility.yul\":974:983   */\n      dup6\n        /* \"#utility.yul\":970:992   */\n      add\n        /* \"#utility.yul\":949:1002   */\n      tag_133\n      jump\t// in\n    tag_176:\n        /* \"#utility.yul\":939:1002   */\n      swap2\n      pop\n        /* \"#utility.yul\":895:1012   */\n      pop\n        /* \"#utility.yul\":690:1019   */\n      swap3\n      swap2\n      pop\n      pop\n      jump\t// out\n        /* \"#utility.yul\":1025:1151   */\n    tag_134:\n        /* \"#utility.yul\":1062:1069   */\n      0x00\n        /* \"#utility.yul\":1102:1144   */\n      0xffffffffffffffffffffffffffffffffffffffff\n        /* \"#utility.yul\":1095:1100   */\n      dup3\n        /* \"#utility.yul\":1091:1145   */\n      and\n        /* \"#utility.yul\":1080:1145   */\n      swap1\n      pop\n        /* \"#utility.yul\":1025:1151   */\n      swap2\n      swap1\n      pop\n      jump\t// out\n        /* \"#utility.yul\":1157:1253   */\n    tag_135:\n        /* \"#utility.yul\":1194:1201   */\n      0x00\n        /* \"#utility.yul\":1223:1247   */\n      tag_179\n        /* \"#utility.yul\":1241:1246   */\n      dup3\n        /* \"#utility.yul\":1223:1247   */\n      tag_134\n      jump\t// in\n    tag_179:\n        /* \"#utility.yul\":1212:1247   */\n      swap1\n      pop\n        /* \"#utility.yul\":1157:1253   */\n      swap2\n      swap1\n      pop\n      jump\t// out\n        /* \"#utility.yul\":1259:1381   */\n    tag_136:\n        /* \"#utility.yul\":1332:1356   */\n      tag_181\n        /* \"#utility.yul\":1350:1355   */\n      dup2\n        /* \"#utility.yul\":1332:1356   */\n      tag_135\n      jump\t// in\n    tag_181:\n        /* \"#utility.yul\":1325:1330   */\n      dup2\n        /* \"#utility.yul\":1322:1357   */\n      eq\n        /* \"#utility.yul\":1312:1375   */\n      tag_182\n      jumpi\n        /* \"#utility.yul\":1371:1372   */\n      0x00\n        /* \"#utility.yul\":1368:1369   */\n      dup1\n        /* \"#utility.yul\":1361:1373   */\n      revert\n        /* \"#utility.yul\":1312:1375   */\n    tag_182:\n        /* \"#utility.yul\":1259:1381   */\n      pop\n      jump\t// out\n        /* \"#utility.yul\":1387:1526   */\n    tag_137:\n        /* \"#utility.yul\":1433:1438   */\n      0x00\n        /* \"#utility.yul\":1471:1477   */\n      dup2\n        /* \"#utility.yul\":1458:1478   */\n      calldataload\n        /* \"#utility.yul\":1449:1478   */\n      swap1\n      pop\n        /* \"#utility.yul\":1487:1520   */\n      tag_184\n        /* \"#utility.yul\":1514:1519   */\n      dup2\n        /* \"#utility.yul\":1487:1520   */\n      tag_136\n      jump\t// in\n    tag_184:\n        /* \"#utility.yul\":1387:1526   */\n      swap3\n      swap2\n      pop\n      pop\n      jump\t// out\n        /* \"#utility.yul\":1532:1861   */\n    tag_22:\n        /* \"#utility.yul\":1591:1597   */\n      0x00\n        /* \"#utility.yul\":1640:1642   */\n      0x20\n        /* \"#utility.yul\":1628:1637   */\n      dup3\n        /* \"#utility.yul\":1619:1626   */\n      dup5\n        /* \"#utility.yul\":1615:1638   */\n      sub\n        /* \"#utility.yul\":1611:1643   */\n      slt\n        /* \"#utility.yul\":1608:1727   */\n      iszero\n      tag_186\n      jumpi\n        /* \"#utility.yul\":1646:1725   */\n      tag_187\n      tag_129\n      jump\t// in\n    tag_187:\n        /* \"#utility.yul\":1608:1727   */\n    tag_186:\n        /* \"#utility.yul\":1766:1767   */\n      0x00\n        /* \"#utility.yul\":1791:1844   */\n      tag_188\n        /* \"#utility.yul\":1836:1843   */\n      dup5\n        /* \"#utility.yul\":1827:1833   */\n      dup3\n        /* \"#utility.yul\":1816:1825   */\n      dup6\n        /* \"#utility.yul\":1812:1834   */\n      add\n        /* \"#utility.yul\":1791:1844   */\n      tag_137\n      jump\t// in\n    tag_188:\n        /* \"#utility.yul\":1781:1844   */\n      swap2\n      pop\n        /* \"#utility.yul\":1737:1854   */\n      pop\n        /* \"#utility.yul\":1532:1861   */\n      swap3\n      swap2\n      pop\n      pop\n      jump\t// out\n        /* \"#utility.yul\":1867:1957   */\n    tag_138:\n        /* \"#utility.yul\":1901:1908   */\n      0x00\n        /* \"#utility.yul\":1944:1949   */\n      dup2\n        /* \"#utility.yul\":1937:1950   */\n      iszero\n        /* \"#utility.yul\":1930:1951   */\n      iszero\n        /* \"#utility.yul\":1919:1951   */\n      swap1\n      pop\n        /* \"#utility.yul\":1867:1957   */\n      swap2\n      swap1\n      pop\n      jump\t// out\n        /* \"#utility.yul\":1963:2072   */\n    tag_139:\n        /* \"#utility.yul\":2044:2065   */\n      tag_191\n        /* \"#utility.yul\":2059:2064   */\n      dup2\n        /* \"#utility.yul\":2044:2065   */\n      tag_138\n      jump\t// in\n    tag_191:\n        /* \"#utility.yul\":2039:2042   */\n      dup3\n        /* \"#utility.yul\":2032:2066   */\n      mstore\n        /* \"#utility.yul\":1963:2072   */\n      pop\n      pop\n      jump\t// out\n        /* \"#utility.yul\":2078:2288   */\n    tag_25:\n        /* \"#utility.yul\":2165:2169   */\n      0x00\n        /* \"#utility.yul\":2203:2205   */\n      0x20\n        /* \"#utility.yul\":2192:2201   */\n      dup3\n        /* \"#utility.yul\":2188:2206   */\n      add\n        /* \"#utility.yul\":2180:2206   */\n      swap1\n      pop\n        /* \"#utility.yul\":2216:2281   */\n      tag_193\n        /* \"#utility.yul\":2278:2279   */\n      0x00\n        /* \"#utility.yul\":2267:2276   */\n      dup4\n        /* \"#utility.yul\":2263:2280   */\n      add\n        /* \"#utility.yul\":2254:2260   */\n      dup5\n        /* \"#utility.yul\":2216:2281   */\n      tag_139\n      jump\t// in\n    tag_193:\n        /* \"#utility.yul\":2078:2288   */\n      swap3\n      swap2\n      pop\n      pop\n      jump\t// out\n        /* \"#utility.yul\":2294:2411   */\n    tag_140:\n        /* \"#utility.yul\":2403:2404   */\n      0x00\n        /* \"#utility.yul\":2400:2401   */\n      dup1\n        /* \"#utility.yul\":2393:2405   */\n      revert\n        /* \"#utility.yul\":2417:2534   */\n    tag_141:\n        /* \"#utility.yul\":2526:2527   */\n      0x00\n        /* \"#utility.yul\":2523:2524   */\n      dup1\n        /* \"#utility.yul\":2516:2528   */\n      revert\n        /* \"#utility.yul\":2540:2642   */\n    tag_142:\n        /* \"#utility.yul\":2581:2587   */\n      0x00\n        /* \"#utility.yul\":2632:2634   */\n      0x1f\n        /* \"#utility.yul\":2628:2635   */\n      not\n        /* \"#utility.yul\":2623:2625   */\n      0x1f\n        /* \"#utility.yul\":2616:2621   */\n      dup4\n        /* \"#utility.yul\":2612:2626   */\n      add\n        /* \"#utility.yul\":2608:2636   */\n      and\n        /* \"#utility.yul\":2598:2636   */\n      swap1\n      pop\n        /* \"#utility.yul\":2540:2642   */\n      swap2\n      swap1\n      pop\n      jump\t// out\n        /* \"#utility.yul\":2648:2828   */\n    tag_143:\n        /* \"#utility.yul\":2696:2773   */\n      0x4e487b7100000000000000000000000000000000000000000000000000000000\n        /* \"#utility.yul\":2693:2694   */\n      0x00\n        /* \"#utility.yul\":2686:2774   */\n      mstore\n        /* \"#utility.yul\":2793:2797   */\n      0x41\n        /* \"#utility.yul\":2790:2791   */\n      0x04\n        /* \"#utility.yul\":2783:2798   */\n      mstore\n        /* \"#utility.yul\":2817:2821   */\n      0x24\n        /* \"#utility.yul\":2814:2815   */\n      0x00\n        /* \"#utility.yul\":2807:2822   */\n      revert\n        /* \"#utility.yul\":2834:3115   */\n    tag_144:\n        /* \"#utility.yul\":2917:2944   */\n      tag_199\n        /* \"#utility.yul\":2939:2943   */\n      dup3\n        /* \"#utility.yul\":2917:2944   */\n      tag_142\n      jump\t// in\n    tag_199:\n        /* \"#utility.yul\":2909:2915   */\n      dup2\n        /* \"#utility.yul\":2905:2945   */\n      add\n        /* \"#utility.yul\":3047:3053   */\n      dup2\n        /* \"#utility.yul\":3035:3045   */\n      dup2\n        /* \"#utility.yul\":3032:3054   */\n      lt\n        /* \"#utility.yul\":3011:3029   */\n      0xffffffffffffffff\n        /* \"#utility.yul\":2999:3009   */\n      dup3\n        /* \"#utility.yul\":2996:3030   */\n      gt\n        /* \"#utility.yul\":2993:3055   */\n      or\n        /* \"#utility.yul\":2990:3078   */\n      iszero\n      tag_200\n      jumpi\n        /* \"#utility.yul\":3058:3076   */\n      tag_201\n      tag_143\n      jump\t// in\n    tag_201:\n        /* \"#utility.yul\":2990:3078   */\n    tag_200:\n        /* \"#utility.yul\":3098:3108   */\n      dup1\n        /* \"#utility.yul\":3094:3096   */\n      0x40\n        /* \"#utility.yul\":3087:3109   */\n      mstore\n        /* \"#utility.yul\":2877:3115   */\n      pop\n        /* \"#utility.yul\":2834:3115   */\n      pop\n      pop\n      jump\t// out\n        /* \"#utility.yul\":3121:3250   */\n    tag_145:\n        /* \"#utility.yul\":3155:3161   */\n      0x00\n        /* \"#utility.yul\":3182:3202   */\n      tag_203\n      tag_128\n      jump\t// in\n    tag_203:\n        /* \"#utility.yul\":3172:3202   */\n      swap1\n      pop\n        /* \"#utility.yul\":3211:3244   */\n      tag_204\n        /* \"#utility.yul\":3239:3243   */\n      dup3\n        /* \"#utility.yul\":3231:3237   */\n      dup3\n        /* \"#utility.yul\":3211:3244   */\n      tag_144\n      jump\t// in\n    tag_204:\n        /* \"#utility.yul\":3121:3250   */\n      swap2\n      swap1\n      pop\n      jump\t// out\n        /* \"#utility.yul\":3256:3564   */\n    tag_146:\n        /* \"#utility.yul\":3318:3322   */\n      0x00\n        /* \"#utility.yul\":3408:3426   */\n      0xffffffffffffffff\n        /* \"#utility.yul\":3400:3406   */\n      dup3\n        /* \"#utility.yul\":3397:3427   */\n      gt\n        /* \"#utility.yul\":3394:3450   */\n      iszero\n      tag_206\n      jumpi\n        /* \"#utility.yul\":3430:3448   */\n      tag_207\n      tag_143\n      jump\t// in\n    tag_207:\n        /* \"#utility.yul\":3394:3450   */\n    tag_206:\n        /* \"#utility.yul\":3468:3497   */\n      tag_208\n        /* \"#utility.yul\":3490:3496   */\n      dup3\n        /* \"#utility.yul\":3468:3497   */\n      tag_142\n      jump\t// in\n    tag_208:\n        /* \"#utility.yul\":3460:3497   */\n      swap1\n      pop\n        /* \"#utility.yul\":3552:3556   */\n      0x20\n        /* \"#utility.yul\":3546:3550   */\n      dup2\n        /* \"#utility.yul\":3542:3557   */\n      add\n        /* \"#utility.yul\":3534:3557   */\n      swap1\n      pop\n        /* \"#utility.yul\":3256:3564   */\n      swap2\n      swap1\n      pop\n      jump\t// out\n        /* \"#utility.yul\":3570:3724   */\n    tag_147:\n        /* \"#utility.yul\":3654:3660   */\n      dup3\n        /* \"#utility.yul\":3649:3652   */\n      dup2\n        /* \"#utility.yul\":3644:3647   */\n      dup4\n        /* \"#utility.yul\":3631:3661   */\n      calldatacopy\n        /* \"#utility.yul\":3716:3717   */\n      0x00\n        /* \"#utility.yul\":3707:3713   */\n      dup4\n        /* \"#utility.yul\":3702:3705   */\n      dup4\n        /* \"#utility.yul\":3698:3714   */\n      add\n        /* \"#utility.yul\":3691:3718   */\n      mstore\n        /* \"#utility.yul\":3570:3724   */\n      pop\n      pop\n      pop\n      jump\t// out\n        /* \"#utility.yul\":3730:4142   */\n    tag_148:\n        /* \"#utility.yul\":3808:3813   */\n      0x00\n        /* \"#utility.yul\":3833:3899   */\n      tag_211\n        /* \"#utility.yul\":3849:3898   */\n      tag_212\n        /* \"#utility.yul\":3891:3897   */\n      dup5\n        /* \"#utility.yul\":3849:3898   */\n      tag_146\n      jump\t// in\n    tag_212:\n        /* \"#utility.yul\":3833:3899   */\n      tag_145\n      jump\t// in\n    tag_211:\n        /* \"#utility.yul\":3824:3899   */\n      swap1\n      pop\n        /* \"#utility.yul\":3922:3928   */\n      dup3\n        /* \"#utility.yul\":3915:3920   */\n      dup2\n        /* \"#utility.yul\":3908:3929   */\n      mstore\n        /* \"#utility.yul\":3960:3964   */\n      0x20\n        /* \"#utility.yul\":3953:3958   */\n      dup2\n        /* \"#utility.yul\":3949:3965   */\n      add\n        /* \"#utility.yul\":3998:4001   */\n      dup5\n        /* \"#utility.yul\":3989:3995   */\n      dup5\n        /* \"#utility.yul\":3984:3987   */\n      dup5\n        /* \"#utility.yul\":3980:3996   */\n      add\n        /* \"#utility.yul\":3977:4002   */\n      gt\n        /* \"#utility.yul\":3974:4086   */\n      iszero\n      tag_213\n      jumpi\n        /* \"#utility.yul\":4005:4084   */\n      tag_214\n      tag_141\n      jump\t// in\n    tag_214:\n        /* \"#utility.yul\":3974:4086   */\n    tag_213:\n        /* \"#utility.yul\":4095:4136   */\n      tag_215\n        /* \"#utility.yul\":4129:4135   */\n      dup5\n        /* \"#utility.yul\":4124:4127   */\n      dup3\n        /* \"#utility.yul\":4119:4122   */\n      dup6\n        /* \"#utility.yul\":4095:4136   */\n      tag_147\n      jump\t// in\n    tag_215:\n        /* \"#utility.yul\":3814:4142   */\n      pop\n        /* \"#utility.yul\":3730:4142   */\n      swap4\n      swap3\n      pop\n      pop\n      pop\n      jump\t// out\n        /* \"#utility.yul\":4162:4502   */\n    tag_149:\n        /* \"#utility.yul\":4218:4223   */\n      0x00\n        /* \"#utility.yul\":4267:4270   */\n      dup3\n        /* \"#utility.yul\":4260:4264   */\n      0x1f\n        /* \"#utility.yul\":4252:4258   */\n      dup4\n        /* \"#utility.yul\":4248:4265   */\n      add\n        /* \"#utility.yul\":4244:4271   */\n      slt\n        /* \"#utility.yul\":4234:4356   */\n      tag_217\n      jumpi\n        /* \"#utility.yul\":4275:4354   */\n      tag_218\n      tag_140\n      jump\t// in\n    tag_218:\n        /* \"#utility.yul\":4234:4356   */\n    tag_217:\n        /* \"#utility.yul\":4392:4398   */\n      dup2\n        /* \"#utility.yul\":4379:4399   */\n      calldataload\n        /* \"#utility.yul\":4417:4496   */\n      tag_219\n        /* \"#utility.yul\":4492:4495   */\n      dup5\n        /* \"#utility.yul\":4484:4490   */\n      dup3\n        /* \"#utility.yul\":4477:4481   */\n      0x20\n        /* \"#utility.yul\":4469:4475   */\n      dup7\n        /* \"#utility.yul\":4465:4482   */\n      add\n        /* \"#utility.yul\":4417:4496   */\n      tag_148\n      jump\t// in\n    tag_219:\n        /* \"#utility.yul\":4408:4496   */\n      swap2\n      pop\n        /* \"#utility.yul\":4224:4502   */\n      pop\n        /* \"#utility.yul\":4162:4502   */\n      swap3\n      swap2\n      pop\n      pop\n      jump\t// out\n        /* \"#utility.yul\":4508:5307   */\n    tag_29:\n        /* \"#utility.yul\":4595:4601   */\n      0x00\n        /* \"#utility.yul\":4603:4609   */\n      dup1\n        /* \"#utility.yul\":4611:4617   */\n      0x00\n        /* \"#utility.yul\":4660:4662   */\n      0x60\n        /* \"#utility.yul\":4648:4657   */\n      dup5\n        /* \"#utility.yul\":4639:4646   */\n      dup7\n        /* \"#utility.yul\":4635:4658   */\n      sub\n        /* \"#utility.yul\":4631:4663   */\n      slt\n        /* \"#utility.yul\":4628:4747   */\n      iszero\n      tag_221\n      jumpi\n        /* \"#utility.yul\":4666:4745   */\n      tag_222\n      tag_129\n      jump\t// in\n    tag_222:\n        /* \"#utility.yul\":4628:4747   */\n    tag_221:\n        /* \"#utility.yul\":4814:4815   */\n      0x00\n        /* \"#utility.yul\":4803:4812   */\n      dup5\n        /* \"#utility.yul\":4799:4816   */\n      add\n        /* \"#utility.yul\":4786:4817   */\n      calldataload\n        /* \"#utility.yul\":4844:4862   */\n      0xffffffffffffffff\n        /* \"#utility.yul\":4836:4842   */\n      dup2\n        /* \"#utility.yul\":4833:4863   */\n      gt\n        /* \"#utility.yul\":4830:4947   */\n      iszero\n      tag_223\n      jumpi\n        /* \"#utility.yul\":4866:4945   */\n      tag_224\n      tag_130\n      jump\t// in\n    tag_224:\n        /* \"#utility.yul\":4830:4947   */\n    tag_223:\n        /* \"#utility.yul\":4971:5034   */\n      tag_225\n        /* \"#utility.yul\":5026:5033   */\n      dup7\n        /* \"#utility.yul\":5017:5023   */\n      dup3\n        /* \"#utility.yul\":5006:5015   */\n      dup8\n        /* \"#utility.yul\":5002:5024   */\n      add\n        /* \"#utility.yul\":4971:5034   */\n      tag_149\n      jump\t// in\n    tag_225:\n        /* \"#utility.yul\":4961:5034   */\n      swap4\n      pop\n        /* \"#utility.yul\":4757:5044   */\n      pop\n        /* \"#utility.yul\":5083:5085   */\n      0x20\n        /* \"#utility.yul\":5109:5162   */\n      tag_226\n        /* \"#utility.yul\":5154:5161   */\n      dup7\n        /* \"#utility.yul\":5145:5151   */\n      dup3\n        /* \"#utility.yul\":5134:5143   */\n      dup8\n        /* \"#utility.yul\":5130:5152   */\n      add\n        /* \"#utility.yul\":5109:5162   */\n      tag_137\n      jump\t// in\n    tag_226:\n        /* \"#utility.yul\":5099:5162   */\n      swap3\n      pop\n        /* \"#utility.yul\":5054:5172   */\n      pop\n        /* \"#utility.yul\":5211:5213   */\n      0x40\n        /* \"#utility.yul\":5237:5290   */\n      tag_227\n        /* \"#utility.yul\":5282:5289   */\n      dup7\n        /* \"#utility.yul\":5273:5279   */\n      dup3\n        /* \"#utility.yul\":5262:5271   */\n      dup8\n        /* \"#utility.yul\":5258:5280   */\n      add\n        /* \"#utility.yul\":5237:5290   */\n      tag_133\n      jump\t// in\n    tag_227:\n        /* \"#utility.yul\":5227:5290   */\n      swap2\n      pop\n        /* \"#utility.yul\":5182:5300   */\n      pop\n        /* \"#utility.yul\":4508:5307   */\n      swap3\n      pop\n      swap3\n      pop\n      swap3\n      jump\t// out\n        /* \"#utility.yul\":5313:5431   */\n    tag_150:\n        /* \"#utility.yul\":5400:5424   */\n      tag_229\n        /* \"#utility.yul\":5418:5423   */\n      dup2\n        /* \"#utility.yul\":5400:5424   */\n      tag_131\n      jump\t// in\n    tag_229:\n        /* \"#utility.yul\":5395:5398   */\n      dup3\n        /* \"#utility.yul\":5388:5425   */\n      mstore\n        /* \"#utility.yul\":5313:5431   */\n      pop\n      pop\n      jump\t// out\n        /* \"#utility.yul\":5437:5659   */\n    tag_35:\n        /* \"#utility.yul\":5530:5534   */\n      0x00\n        /* \"#utility.yul\":5568:5570   */\n      0x20\n        /* \"#utility.yul\":5557:5566   */\n      dup3\n        /* \"#utility.yul\":5553:5571   */\n      add\n        /* \"#utility.yul\":5545:5571   */\n      swap1\n      pop\n        /* \"#utility.yul\":5581:5652   */\n      tag_231\n        /* \"#utility.yul\":5649:5650   */\n      0x00\n        /* \"#utility.yul\":5638:5647   */\n      dup4\n        /* \"#utility.yul\":5634:5651   */\n      add\n        /* \"#utility.yul\":5625:5631   */\n      dup5\n        /* \"#utility.yul\":5581:5652   */\n      tag_150\n      jump\t// in\n    tag_231:\n        /* \"#utility.yul\":5437:5659   */\n      swap3\n      swap2\n      pop\n      pop\n      jump\t// out\n        /* \"#utility.yul\":5665:5783   */\n    tag_151:\n        /* \"#utility.yul\":5752:5776   */\n      tag_233\n        /* \"#utility.yul\":5770:5775   */\n      dup2\n        /* \"#utility.yul\":5752:5776   */\n      tag_135\n      jump\t// in\n    tag_233:\n        /* \"#utility.yul\":5747:5750   */\n      dup3\n        /* \"#utility.yul\":5740:5777   */\n      mstore\n        /* \"#utility.yul\":5665:5783   */\n      pop\n      pop\n      jump\t// out\n        /* \"#utility.yul\":5789:6453   */\n    tag_40:\n        /* \"#utility.yul\":5994:5998   */\n      0x00\n        /* \"#utility.yul\":6032:6035   */\n      0xa0\n        /* \"#utility.yul\":6021:6030   */\n      dup3\n        /* \"#utility.yul\":6017:6036   */\n      add\n        /* \"#utility.yul\":6009:6036   */\n      swap1\n      pop\n        /* \"#utility.yul\":6046:6117   */\n      tag_235\n        /* \"#utility.yul\":6114:6115   */\n      0x00\n        /* \"#utility.yul\":6103:6112   */\n      dup4\n        /* \"#utility.yul\":6099:6116   */\n      add\n        /* \"#utility.yul\":6090:6096   */\n      dup9\n        /* \"#utility.yul\":6046:6117   */\n      tag_150\n      jump\t// in\n    tag_235:\n        /* \"#utility.yul\":6127:6199   */\n      tag_236\n        /* \"#utility.yul\":6195:6197   */\n      0x20\n        /* \"#utility.yul\":6184:6193   */\n      dup4\n        /* \"#utility.yul\":6180:6198   */\n      add\n        /* \"#utility.yul\":6171:6177   */\n      dup8\n        /* \"#utility.yul\":6127:6199   */\n      tag_150\n      jump\t// in\n    tag_236:\n        /* \"#utility.yul\":6209:6281   */\n      tag_237\n        /* \"#utility.yul\":6277:6279   */\n      0x40\n        /* \"#utility.yul\":6266:6275   */\n      dup4\n        /* \"#utility.yul\":6262:6280   */\n      add\n        /* \"#utility.yul\":6253:6259   */\n      dup7\n        /* \"#utility.yul\":6209:6281   */\n      tag_150\n      jump\t// in\n    tag_237:\n        /* \"#utility.yul\":6291:6363   */\n      tag_238\n        /* \"#utility.yul\":6359:6361   */\n      0x60\n        /* \"#utility.yul\":6348:6357   */\n      dup4\n        /* \"#utility.yul\":6344:6362   */\n      add\n        /* \"#utility.yul\":6335:6341   */\n      dup6\n        /* \"#utility.yul\":6291:6363   */\n      tag_150\n      jump\t// in\n    tag_238:\n        /* \"#utility.yul\":6373:6446   */\n      tag_239\n        /* \"#utility.yul\":6441:6444   */\n      0x80\n        /* \"#utility.yul\":6430:6439   */\n      dup4\n        /* \"#utility.yul\":6426:6445   */\n      add\n        /* \"#utility.yul\":6417:6423   */\n      dup5\n        /* \"#utility.yul\":6373:6446   */\n      tag_151\n      jump\t// in\n    tag_239:\n        /* \"#utility.yul\":5789:6453   */\n      swap7\n      swap6\n      pop\n      pop\n      pop\n      pop\n      pop\n      pop\n      jump\t// out\n        /* \"#utility.yul\":6459:6681   */\n    tag_45:\n        /* \"#utility.yul\":6552:6556   */\n      0x00\n        /* \"#utility.yul\":6590:6592   */\n      0x20\n        /* \"#utility.yul\":6579:6588   */\n      dup3\n        /* \"#utility.yul\":6575:6593   */\n      add\n        /* \"#utility.yul\":6567:6593   */\n      swap1\n      pop\n        /* \"#utility.yul\":6603:6674   */\n      tag_241\n        /* \"#utility.yul\":6671:6672   */\n      0x00\n        /* \"#utility.yul\":6660:6669   */\n      dup4\n        /* \"#utility.yul\":6656:6673   */\n      add\n        /* \"#utility.yul\":6647:6653   */\n      dup5\n        /* \"#utility.yul\":6603:6674   */\n      tag_151\n      jump\t// in\n    tag_241:\n        /* \"#utility.yul\":6459:6681   */\n      swap3\n      swap2\n      pop\n      pop\n      jump\t// out\n        /* \"#utility.yul\":6687:6786   */\n    tag_152:\n        /* \"#utility.yul\":6739:6745   */\n      0x00\n        /* \"#utility.yul\":6773:6778   */\n      dup2\n        /* \"#utility.yul\":6767:6779   */\n      mload\n        /* \"#utility.yul\":6757:6779   */\n      swap1\n      pop\n        /* \"#utility.yul\":6687:6786   */\n      swap2\n      swap1\n      pop\n      jump\t// out\n        /* \"#utility.yul\":6792:6961   */\n    tag_153:\n        /* \"#utility.yul\":6876:6887   */\n      0x00\n        /* \"#utility.yul\":6910:6916   */\n      dup3\n        /* \"#utility.yul\":6905:6908   */\n      dup3\n        /* \"#utility.yul\":6898:6917   */\n      mstore\n        /* \"#utility.yul\":6950:6954   */\n      0x20\n        /* \"#utility.yul\":6945:6948   */\n      dup3\n        /* \"#utility.yul\":6941:6955   */\n      add\n        /* \"#utility.yul\":6926:6955   */\n      swap1\n      pop\n        /* \"#utility.yul\":6792:6961   */\n      swap3\n      swap2\n      pop\n      pop\n      jump\t// out\n        /* \"#utility.yul\":6967:7274   */\n    tag_154:\n        /* \"#utility.yul\":7035:7036   */\n      0x00\n        /* \"#utility.yul\":7045:7158   */\n    tag_245:\n        /* \"#utility.yul\":7059:7065   */\n      dup4\n        /* \"#utility.yul\":7056:7057   */\n      dup2\n        /* \"#utility.yul\":7053:7066   */\n      lt\n        /* \"#utility.yul\":7045:7158   */\n      iszero\n      tag_247\n      jumpi\n        /* \"#utility.yul\":7144:7145   */\n      dup1\n        /* \"#utility.yul\":7139:7142   */\n      dup3\n        /* \"#utility.yul\":7135:7146   */\n      add\n        /* \"#utility.yul\":7129:7147   */\n      mload\n        /* \"#utility.yul\":7125:7126   */\n      dup2\n        /* \"#utility.yul\":7120:7123   */\n      dup5\n        /* \"#utility.yul\":7116:7127   */\n      add\n        /* \"#utility.yul\":7109:7148   */\n      mstore\n        /* \"#utility.yul\":7081:7083   */\n      0x20\n        /* \"#utility.yul\":7078:7079   */\n      dup2\n        /* \"#utility.yul\":7074:7084   */\n      add\n        /* \"#utility.yul\":7069:7084   */\n      swap1\n      pop\n        /* \"#utility.yul\":7045:7158   */\n      jump(tag_245)\n    tag_247:\n        /* \"#utility.yul\":7176:7182   */\n      dup4\n        /* \"#utility.yul\":7173:7174   */\n      dup2\n        /* \"#utility.yul\":7170:7183   */\n      gt\n        /* \"#utility.yul\":7167:7268   */\n      iszero\n      tag_248\n      jumpi\n        /* \"#utility.yul\":7256:7257   */\n      0x00\n        /* \"#utility.yul\":7247:7253   */\n      dup5\n        /* \"#utility.yul\":7242:7245   */\n      dup5\n        /* \"#utility.yul\":7238:7254   */\n      add\n        /* \"#utility.yul\":7231:7258   */\n      mstore\n        /* \"#utility.yul\":7167:7268   */\n    tag_248:\n        /* \"#utility.yul\":7016:7274   */\n      pop\n        /* \"#utility.yul\":6967:7274   */\n      pop\n      pop\n      pop\n      jump\t// out\n        /* \"#utility.yul\":7280:7644   */\n    tag_155:\n        /* \"#utility.yul\":7368:7371   */\n      0x00\n        /* \"#utility.yul\":7396:7435   */\n      tag_250\n        /* \"#utility.yul\":7429:7434   */\n      dup3\n        /* \"#utility.yul\":7396:7435   */\n      tag_152\n      jump\t// in\n    tag_250:\n        /* \"#utility.yul\":7451:7522   */\n      tag_251\n        /* \"#utility.yul\":7515:7521   */\n      dup2\n        /* \"#utility.yul\":7510:7513   */\n      dup6\n        /* \"#utility.yul\":7451:7522   */\n      tag_153\n      jump\t// in\n    tag_251:\n        /* \"#utility.yul\":7444:7522   */\n      swap4\n      pop\n        /* \"#utility.yul\":7531:7583   */\n      tag_252\n        /* \"#utility.yul\":7576:7582   */\n      dup2\n        /* \"#utility.yul\":7571:7574   */\n      dup6\n        /* \"#utility.yul\":7564:7568   */\n      0x20\n        /* \"#utility.yul\":7557:7562   */\n      dup7\n        /* \"#utility.yul\":7553:7569   */\n      add\n        /* \"#utility.yul\":7531:7583   */\n      tag_154\n      jump\t// in\n    tag_252:\n        /* \"#utility.yul\":7608:7637   */\n      tag_253\n        /* \"#utility.yul\":7630:7636   */\n      dup2\n        /* \"#utility.yul\":7608:7637   */\n      tag_142\n      jump\t// in\n    tag_253:\n        /* \"#utility.yul\":7603:7606   */\n      dup5\n        /* \"#utility.yul\":7599:7638   */\n      add\n        /* \"#utility.yul\":7592:7638   */\n      swap2\n      pop\n        /* \"#utility.yul\":7372:7644   */\n      pop\n        /* \"#utility.yul\":7280:7644   */\n      swap3\n      swap2\n      pop\n      pop\n      jump\t// out\n        /* \"#utility.yul\":7650:8393   */\n    tag_51:\n        /* \"#utility.yul\":7869:7873   */\n      0x00\n        /* \"#utility.yul\":7907:7910   */\n      0xa0\n        /* \"#utility.yul\":7896:7905   */\n      dup3\n        /* \"#utility.yul\":7892:7911   */\n      add\n        /* \"#utility.yul\":7884:7911   */\n      swap1\n      pop\n        /* \"#utility.yul\":7957:7966   */\n      dup2\n        /* \"#utility.yul\":7951:7955   */\n      dup2\n        /* \"#utility.yul\":7947:7967   */\n      sub\n        /* \"#utility.yul\":7943:7944   */\n      0x00\n        /* \"#utility.yul\":7932:7941   */\n      dup4\n        /* \"#utility.yul\":7928:7945   */\n      add\n        /* \"#utility.yul\":7921:7968   */\n      mstore\n        /* \"#utility.yul\":7985:8063   */\n      tag_255\n        /* \"#utility.yul\":8058:8062   */\n      dup2\n        /* \"#utility.yul\":8049:8055   */\n      dup9\n        /* \"#utility.yul\":7985:8063   */\n      tag_155\n      jump\t// in\n    tag_255:\n        /* \"#utility.yul\":7977:8063   */\n      swap1\n      pop\n        /* \"#utility.yul\":8073:8145   */\n      tag_256\n        /* \"#utility.yul\":8141:8143   */\n      0x20\n        /* \"#utility.yul\":8130:8139   */\n      dup4\n        /* \"#utility.yul\":8126:8144   */\n      add\n        /* \"#utility.yul\":8117:8123   */\n      dup8\n        /* \"#utility.yul\":8073:8145   */\n      tag_151\n      jump\t// in\n    tag_256:\n        /* \"#utility.yul\":8155:8227   */\n      tag_257\n        /* \"#utility.yul\":8223:8225   */\n      0x40\n        /* \"#utility.yul\":8212:8221   */\n      dup4\n        /* \"#utility.yul\":8208:8226   */\n      add\n        /* \"#utility.yul\":8199:8205   */\n      dup7\n        /* \"#utility.yul\":8155:8227   */\n      tag_150\n      jump\t// in\n    tag_257:\n        /* \"#utility.yul\":8237:8303   */\n      tag_258\n        /* \"#utility.yul\":8299:8301   */\n      0x60\n        /* \"#utility.yul\":8288:8297   */\n      dup4\n        /* \"#utility.yul\":8284:8302   */\n      add\n        /* \"#utility.yul\":8275:8281   */\n      dup6\n        /* \"#utility.yul\":8237:8303   */\n      tag_139\n      jump\t// in\n    tag_258:\n        /* \"#utility.yul\":8313:8386   */\n      tag_259\n        /* \"#utility.yul\":8381:8384   */\n      0x80\n        /* \"#utility.yul\":8370:8379   */\n      dup4\n        /* \"#utility.yul\":8366:8385   */\n      add\n        /* \"#utility.yul\":8357:8363   */\n      dup5\n        /* \"#utility.yul\":8313:8386   */\n      tag_150\n      jump\t// in\n    tag_259:\n        /* \"#utility.yul\":7650:8393   */\n      swap7\n      swap6\n      pop\n      pop\n      pop\n      pop\n      pop\n      pop\n      jump\t// out\n        /* \"#utility.yul\":8399:8572   */\n    tag_156:\n        /* \"#utility.yul\":8539:8564   */\n      0x4f6e6c79206d616e616765722063616e20616363657373000000000000000000\n        /* \"#utility.yul\":8535:8536   */\n      0x00\n        /* \"#utility.yul\":8527:8533   */\n      dup3\n        /* \"#utility.yul\":8523:8537   */\n      add\n        /* \"#utility.yul\":8516:8565   */\n      mstore\n        /* \"#utility.yul\":8399:8572   */\n      pop\n      jump\t// out\n        /* \"#utility.yul\":8578:8944   */\n    tag_157:\n        /* \"#utility.yul\":8720:8723   */\n      0x00\n        /* \"#utility.yul\":8741:8808   */\n      tag_262\n        /* \"#utility.yul\":8805:8807   */\n      0x17\n        /* \"#utility.yul\":8800:8803   */\n      dup4\n        /* \"#utility.yul\":8741:8808   */\n      tag_153\n      jump\t// in\n    tag_262:\n        /* \"#utility.yul\":8734:8808   */\n      swap2\n      pop\n        /* \"#utility.yul\":8817:8910   */\n      tag_263\n        /* \"#utility.yul\":8906:8909   */\n      dup3\n        /* \"#utility.yul\":8817:8910   */\n      tag_156\n      jump\t// in\n    tag_263:\n        /* \"#utility.yul\":8935:8937   */\n      0x20\n        /* \"#utility.yul\":8930:8933   */\n      dup3\n        /* \"#utility.yul\":8926:8938   */\n      add\n        /* \"#utility.yul\":8919:8938   */\n      swap1\n      pop\n        /* \"#utility.yul\":8578:8944   */\n      swap2\n      swap1\n      pop\n      jump\t// out\n        /* \"#utility.yul\":8950:9369   */\n    tag_69:\n        /* \"#utility.yul\":9116:9120   */\n      0x00\n        /* \"#utility.yul\":9154:9156   */\n      0x20\n        /* \"#utility.yul\":9143:9152   */\n      dup3\n        /* \"#utility.yul\":9139:9157   */\n      add\n        /* \"#utility.yul\":9131:9157   */\n      swap1\n      pop\n        /* \"#utility.yul\":9203:9212   */\n      dup2\n        /* \"#utility.yul\":9197:9201   */\n      dup2\n        /* \"#utility.yul\":9193:9213   */\n      sub\n        /* \"#utility.yul\":9189:9190   */\n      0x00\n        /* \"#utility.yul\":9178:9187   */\n      dup4\n        /* \"#utility.yul\":9174:9191   */\n      add\n        /* \"#utility.yul\":9167:9214   */\n      mstore\n        /* \"#utility.yul\":9231:9362   */\n      tag_265\n        /* \"#utility.yul\":9357:9361   */\n      dup2\n        /* \"#utility.yul\":9231:9362   */\n      tag_157\n      jump\t// in\n    tag_265:\n        /* \"#utility.yul\":9223:9362   */\n      swap1\n      pop\n        /* \"#utility.yul\":8950:9369   */\n      swap2\n      swap1\n      pop\n      jump\t// out\n        /* \"#utility.yul\":9375:9555   */\n    tag_73:\n        /* \"#utility.yul\":9423:9500   */\n      0x4e487b7100000000000000000000000000000000000000000000000000000000\n        /* \"#utility.yul\":9420:9421   */\n      0x00\n        /* \"#utility.yul\":9413:9501   */\n      mstore\n        /* \"#utility.yul\":9520:9524   */\n      0x32\n        /* \"#utility.yul\":9517:9518   */\n      0x04\n        /* \"#utility.yul\":9510:9525   */\n      mstore\n        /* \"#utility.yul\":9544:9548   */\n      0x24\n        /* \"#utility.yul\":9541:9542   */\n      0x00\n        /* \"#utility.yul\":9534:9549   */\n      revert\n        /* \"#utility.yul\":9561:9741   */\n    tag_158:\n        /* \"#utility.yul\":9609:9686   */\n      0x4e487b7100000000000000000000000000000000000000000000000000000000\n        /* \"#utility.yul\":9606:9607   */\n      0x00\n        /* \"#utility.yul\":9599:9687   */\n      mstore\n        /* \"#utility.yul\":9706:9710   */\n      0x12\n        /* \"#utility.yul\":9703:9704   */\n      0x04\n        /* \"#utility.yul\":9696:9711   */\n      mstore\n        /* \"#utility.yul\":9730:9734   */\n      0x24\n        /* \"#utility.yul\":9727:9728   */\n      0x00\n        /* \"#utility.yul\":9720:9735   */\n      revert\n        /* \"#utility.yul\":9747:9927   */\n    tag_159:\n        /* \"#utility.yul\":9795:9872   */\n      0x4e487b7100000000000000000000000000000000000000000000000000000000\n        /* \"#utility.yul\":9792:9793   */\n      0x00\n        /* \"#utility.yul\":9785:9873   */\n      mstore\n        /* \"#utility.yul\":9892:9896   */\n      0x11\n        /* \"#utility.yul\":9889:9890   */\n      0x04\n        /* \"#utility.yul\":9882:9897   */\n      mstore\n        /* \"#utility.yul\":9916:9920   */\n      0x24\n        /* \"#utility.yul\":9913:9914   */\n      0x00\n        /* \"#utility.yul\":9906:9921   */\n      revert\n        /* \"#utility.yul\":9933:10118   */\n    tag_77:\n        /* \"#utility.yul\":9973:9974   */\n      0x00\n        /* \"#utility.yul\":9990:10010   */\n      tag_270\n        /* \"#utility.yul\":10008:10009   */\n      dup3\n        /* \"#utility.yul\":9990:10010   */\n      tag_131\n      jump\t// in\n    tag_270:\n        /* \"#utility.yul\":9985:10010   */\n      swap2\n      pop\n        /* \"#utility.yul\":10024:10044   */\n      tag_271\n        /* \"#utility.yul\":10042:10043   */\n      dup4\n        /* \"#utility.yul\":10024:10044   */\n      tag_131\n      jump\t// in\n    tag_271:\n        /* \"#utility.yul\":10019:10044   */\n      swap3\n      pop\n        /* \"#utility.yul\":10063:10064   */\n      dup3\n        /* \"#utility.yul\":10053:10088   */\n      tag_272\n      jumpi\n        /* \"#utility.yul\":10068:10086   */\n      tag_273\n      tag_158\n      jump\t// in\n    tag_273:\n        /* \"#utility.yul\":10053:10088   */\n    tag_272:\n        /* \"#utility.yul\":10110:10111   */\n      dup3\n        /* \"#utility.yul\":10107:10108   */\n      dup3\n        /* \"#utility.yul\":10103:10112   */\n      div\n        /* \"#utility.yul\":10098:10112   */\n      swap1\n      pop\n        /* \"#utility.yul\":9933:10118   */\n      swap3\n      swap2\n      pop\n      pop\n      jump\t// out\n        /* \"#utility.yul\":10124:10304   */\n    tag_160:\n        /* \"#utility.yul\":10172:10249   */\n      0x4e487b7100000000000000000000000000000000000000000000000000000000\n        /* \"#utility.yul\":10169:10170   */\n      0x00\n        /* \"#utility.yul\":10162:10250   */\n      mstore\n        /* \"#utility.yul\":10269:10273   */\n      0x22\n        /* \"#utility.yul\":10266:10267   */\n      0x04\n        /* \"#utility.yul\":10259:10274   */\n      mstore\n        /* \"#utility.yul\":10293:10297   */\n      0x24\n        /* \"#utility.yul\":10290:10291   */\n      0x00\n        /* \"#utility.yul\":10283:10298   */\n      revert\n        /* \"#utility.yul\":10310:10630   */\n    tag_93:\n        /* \"#utility.yul\":10354:10360   */\n      0x00\n        /* \"#utility.yul\":10391:10392   */\n      0x02\n        /* \"#utility.yul\":10385:10389   */\n      dup3\n        /* \"#utility.yul\":10381:10393   */\n      div\n        /* \"#utility.yul\":10371:10393   */\n      swap1\n      pop\n        /* \"#utility.yul\":10438:10439   */\n      0x01\n        /* \"#utility.yul\":10432:10436   */\n      dup3\n        /* \"#utility.yul\":10428:10440   */\n      and\n        /* \"#utility.yul\":10459:10477   */\n      dup1\n        /* \"#utility.yul\":10449:10530   */\n      tag_276\n      jumpi\n        /* \"#utility.yul\":10515:10519   */\n      0x7f\n        /* \"#utility.yul\":10507:10513   */\n      dup3\n        /* \"#utility.yul\":10503:10520   */\n      and\n        /* \"#utility.yul\":10493:10520   */\n      swap2\n      pop\n        /* \"#utility.yul\":10449:10530   */\n    tag_276:\n        /* \"#utility.yul\":10577:10579   */\n      0x20\n        /* \"#utility.yul\":10569:10575   */\n      dup3\n        /* \"#utility.yul\":10566:10580   */\n      lt\n        /* \"#utility.yul\":10546:10564   */\n      dup2\n        /* \"#utility.yul\":10543:10581   */\n      sub\n        /* \"#utility.yul\":10540:10624   */\n      tag_277\n      jumpi\n        /* \"#utility.yul\":10596:10614   */\n      tag_278\n      tag_160\n      jump\t// in\n    tag_278:\n        /* \"#utility.yul\":10540:10624   */\n    tag_277:\n        /* \"#utility.yul\":10361:10630   */\n      pop\n        /* \"#utility.yul\":10310:10630   */\n      swap2\n      swap1\n      pop\n      jump\t// out\n        /* \"#utility.yul\":10636:10812   */\n    tag_161:\n        /* \"#utility.yul\":10776:10804   */\n      0x546865206d616e616765722063616e206e6f7420616363657373000000000000\n        /* \"#utility.yul\":10772:10773   */\n      0x00\n        /* \"#utility.yul\":10764:10770   */\n      dup3\n        /* \"#utility.yul\":10760:10774   */\n      add\n        /* \"#utility.yul\":10753:10805   */\n      mstore\n        /* \"#utility.yul\":10636:10812   */\n      pop\n      jump\t// out\n        /* \"#utility.yul\":10818:11184   */\n    tag_162:\n        /* \"#utility.yul\":10960:10963   */\n      0x00\n        /* \"#utility.yul\":10981:11048   */\n      tag_281\n        /* \"#utility.yul\":11045:11047   */\n      0x1a\n        /* \"#utility.yul\":11040:11043   */\n      dup4\n        /* \"#utility.yul\":10981:11048   */\n      tag_153\n      jump\t// in\n    tag_281:\n        /* \"#utility.yul\":10974:11048   */\n      swap2\n      pop\n        /* \"#utility.yul\":11057:11150   */\n      tag_282\n        /* \"#utility.yul\":11146:11149   */\n      dup3\n        /* \"#utility.yul\":11057:11150   */\n      tag_161\n      jump\t// in\n    tag_282:\n        /* \"#utility.yul\":11175:11177   */\n      0x20\n        /* \"#utility.yul\":11170:11173   */\n      dup3\n        /* \"#utility.yul\":11166:11178   */\n      add\n        /* \"#utility.yul\":11159:11178   */\n      swap1\n      pop\n        /* \"#utility.yul\":10818:11184   */\n      swap2\n      swap1\n      pop\n      jump\t// out\n        /* \"#utility.yul\":11190:11609   */\n    tag_101:\n        /* \"#utility.yul\":11356:11360   */\n      0x00\n        /* \"#utility.yul\":11394:11396   */\n      0x20\n        /* \"#utility.yul\":11383:11392   */\n      dup3\n        /* \"#utility.yul\":11379:11397   */\n      add\n        /* \"#utility.yul\":11371:11397   */\n      swap1\n      pop\n        /* \"#utility.yul\":11443:11452   */\n      dup2\n        /* \"#utility.yul\":11437:11441   */\n      dup2\n        /* \"#utility.yul\":11433:11453   */\n      sub\n        /* \"#utility.yul\":11429:11430   */\n      0x00\n        /* \"#utility.yul\":11418:11427   */\n      dup4\n        /* \"#utility.yul\":11414:11431   */\n      add\n        /* \"#utility.yul\":11407:11454   */\n      mstore\n        /* \"#utility.yul\":11471:11602   */\n      tag_284\n        /* \"#utility.yul\":11597:11601   */\n      dup2\n        /* \"#utility.yul\":11471:11602   */\n      tag_162\n      jump\t// in\n    tag_284:\n        /* \"#utility.yul\":11463:11602   */\n      swap1\n      pop\n        /* \"#utility.yul\":11190:11609   */\n      swap2\n      swap1\n      pop\n      jump\t// out\n        /* \"#utility.yul\":11615:11848   */\n    tag_106:\n        /* \"#utility.yul\":11654:11657   */\n      0x00\n        /* \"#utility.yul\":11677:11701   */\n      tag_286\n        /* \"#utility.yul\":11695:11700   */\n      dup3\n        /* \"#utility.yul\":11677:11701   */\n      tag_131\n      jump\t// in\n    tag_286:\n        /* \"#utility.yul\":11668:11701   */\n      swap2\n      pop\n        /* \"#utility.yul\":11723:11789   */\n      0xffffffffffffffffffffffffffffffffffffffffffffffffffffffffffffffff\n        /* \"#utility.yul\":11716:11721   */\n      dup3\n        /* \"#utility.yul\":11713:11790   */\n      sub\n        /* \"#utility.yul\":11710:11813   */\n      tag_287\n      jumpi\n        /* \"#utility.yul\":11793:11811   */\n      tag_288\n      tag_159\n      jump\t// in\n    tag_288:\n        /* \"#utility.yul\":11710:11813   */\n    tag_287:\n        /* \"#utility.yul\":11840:11841   */\n      0x01\n        /* \"#utility.yul\":11833:11838   */\n      dup3\n        /* \"#utility.yul\":11829:11842   */\n      add\n        /* \"#utility.yul\":11822:11842   */\n      swap1\n      pop\n        /* \"#utility.yul\":11615:11848   */\n      swap2\n      swap1\n      pop\n      jump\t// out\n\n    auxdata: 0xa2646970667358221220094d234ff93901d758276b3612e43472dd2e3903e30201b77c6384c4d4987ed764736f6c634300080d0033\n}\n","bytecode":{"linkReferences":{},"object":"60806040523480156200001157600080fd5b50604051620013473803806200134783398181016040528101906200003791906200012b565b816000806101000a81548173ffffffffffffffffffffffffffffffffffffffff021916908373ffffffffffffffffffffffffffffffffffffffff16021790555080600181905550505062000172565b600080fd5b600073ffffffffffffffffffffffffffffffffffffffff82169050919050565b6000620000b8826200008b565b9050919050565b620000ca81620000ab565b8114620000d657600080fd5b50565b600081519050620000ea81620000bf565b92915050565b6000819050919050565b6200010581620000f0565b81146200011157600080fd5b50565b6000815190506200012581620000fa565b92915050565b6000806040838503121562000145576200014462000086565b5b60006200015585828601620000d9565b9250506020620001688582860162000114565b9150509250929050565b6111c580620001826000396000f3fe60806040526004361061009c5760003560e01c8063481c6a7511610064578063481c6a751461018a57806381d12c58146101b557806382fde093146101f6578063937e09b114610221578063d7bb99ba1461024c578063d7d1bbdb146102565761009c565b806303441006146100a15780630a144391146100ca5780631b16bb5c146101075780633410452a146101305780634051ddac1461015b575b600080fd5b3480156100ad57600080fd5b506100c860048036038101906100c39190610b25565b61027f565b005b3480156100d657600080fd5b506100f160048036038101906100ec9190610bb0565b6103fd565b6040516100fe9190610bf8565b60405180910390f35b34801561011357600080fd5b5061012e60048036038101906101299190610d59565b61041d565b005b34801561013c57600080fd5b50610145610561565b6040516101529190610dd7565b60405180910390f35b34801561016757600080fd5b5061017061056e565b604051610181959493929190610e01565b60405180910390f35b34801561019657600080fd5b5061019f6105b5565b6040516101ac9190610e54565b60405180910390f35b3480156101c157600080fd5b506101dc60048036038101906101d79190610b25565b6105d9565b6040516101ed959493929190610ef7565b60405180910390f35b34801561020257600080fd5b5061020b6106d4565b6040516102189190610dd7565b60405180910390f35b34801561022d57600080fd5b506102366106da565b6040516102439190610dd7565b60405180910390f35b6102546106e0565b005b34801561026257600080fd5b5061027d60048036038101906102789190610b25565b610841565b005b3373ffffffffffffffffffffffffffffffffffffffff1660008054906101000a900473ffffffffffffffffffffffffffffffffffffffff1673ffffffffffffffffffffffffffffffffffffffff161461030d576040517f08c379a000000000000000000000000000000000000000000000000000000000815260040161030490610f9d565b60405180910390fd5b60006004828154811061032357610322610fbd565b5b906000526020600020906006020190508060030160009054906101000a900460ff161561034f57600080fd5b600260035461035e919061104a565b81600501541161036d57600080fd5b8060010160009054906101000a900473ffffffffffffffffffffffffffffffffffffffff1673ffffffffffffffffffffffffffffffffffffffff166108fc82600201549081150290604051600060405180830381858888f193505050501580156103db573d6000803e3d6000fd5b5060018160030160006101000a81548160ff0219169083151502179055505050565b60026020528060005260406000206000915054906101000a900460ff1681565b3373ffffffffffffffffffffffffffffffffffffffff1660008054906101000a900473ffffffffffffffffffffffffffffffffffffffff1673ffffffffffffffffffffffffffffffffffffffff16146104ab576040517f08c379a00000000000000000000000000000000000000000000000000000000081526004016104a290610f9d565b60405180910390fd5b600060046001816001815401808255809150500390600052602060002090600602019050838160000190805190602001906104e7929190610a38565b50828160010160006101000a81548173ffffffffffffffffffffffffffffffffffffffff021916908373ffffffffffffffffffffffffffffffffffffffff16021790555081816002018190555060008160030160006101000a81548160ff0219169083151502179055506000816005018190555050505050565b6000600480549050905090565b60008060008060006001544760048054905060035460008054906101000a900473ffffffffffffffffffffffffffffffffffffffff16945094509450945094509091929394565b60008054906101000a900473ffffffffffffffffffffffffffffffffffffffff1681565b600481815481106105e957600080fd5b906000526020600020906006020160009150905080600001805461060c906110aa565b80601f0160208091040260200160405190810160405280929190818152602001828054610638906110aa565b80156106855780601f1061065a57610100808354040283529160200191610685565b820191906000526020600020905b81548152906001019060200180831161066857829003601f168201915b5050505050908060010160009054906101000a900473ffffffffffffffffffffffffffffffffffffffff16908060020154908060030160009054906101000a900460ff16908060050154905085565b60035481565b60015481565b3373ffffffffffffffffffffffffffffffffffffffff1660008054906101000a900473ffffffffffffffffffffffffffffffffffffffff1673ffffffffffffffffffffffffffffffffffffffff160361076e576040517f08c379a000000000000000000000000000000000000000000000000000000000815260040161076590611127565b60405180910390fd5b34600154111561077d57600080fd5b600260003373ffffffffffffffffffffffffffffffffffffffff1673ffffffffffffffffffffffffffffffffffffffff16815260200190815260200160002060009054906101000a900460ff1661083f576001600260003373ffffffffffffffffffffffffffffffffffffffff1673ffffffffffffffffffffffffffffffffffffffff16815260200190815260200160002060006101000a81548160ff0219169083151502179055506003600081548092919061083990611147565b91905055505b565b3373ffffffffffffffffffffffffffffffffffffffff1660008054906101000a900473ffffffffffffffffffffffffffffffffffffffff1673ffffffffffffffffffffffffffffffffffffffff16036108cf576040517f08c379a00000000000000000000000000000000000000000000000000000000081526004016108c690611127565b60405180910390fd5b6000600482815481106108e5576108e4610fbd565b5b90600052602060002090600602019050600260003373ffffffffffffffffffffffffffffffffffffffff1673ffffffffffffffffffffffffffffffffffffffff16815260200190815260200160002060009054906101000a900460ff1661094b57600080fd5b8060030160009054906101000a900460ff161561096757600080fd5b8060040160003373ffffffffffffffffffffffffffffffffffffffff1673ffffffffffffffffffffffffffffffffffffffff16815260200190815260200160002060009054906101000a900460ff16156109c057600080fd5b60018160040160003373ffffffffffffffffffffffffffffffffffffffff1673ffffffffffffffffffffffffffffffffffffffff16815260200190815260200160002060006101000a81548160ff021916908315150217905550806005016000815480929190610a2f90611147565b91905055505050565b828054610a44906110aa565b90600052602060002090601f016020900481019282610a665760008555610aad565b82601f10610a7f57805160ff1916838001178555610aad565b82800160010185558215610aad579182015b82811115610aac578251825591602001919060010190610a91565b5b509050610aba9190610abe565b5090565b5b80821115610ad7576000816000905550600101610abf565b5090565b6000604051905090565b600080fd5b600080fd5b6000819050919050565b610b0281610aef565b8114610b0d57600080fd5b50565b600081359050610b1f81610af9565b92915050565b600060208284031215610b3b57610b3a610ae5565b5b6000610b4984828501610b10565b91505092915050565b600073ffffffffffffffffffffffffffffffffffffffff82169050919050565b6000610b7d82610b52565b9050919050565b610b8d81610b72565b8114610b9857600080fd5b50565b600081359050610baa81610b84565b92915050565b600060208284031215610bc657610bc5610ae5565b5b6000610bd484828501610b9b565b91505092915050565b60008115159050919050565b610bf281610bdd565b82525050565b6000602082019050610c0d6000830184610be9565b92915050565b600080fd5b600080fd5b6000601f19601f8301169050919050565b7f4e487b7100000000000000000000000000000000000000000000000000000000600052604160045260246000fd5b610c6682610c1d565b810181811067ffffffffffffffff82111715610c8557610c84610c2e565b5b80604052505050565b6000610c98610adb565b9050610ca48282610c5d565b919050565b600067ffffffffffffffff821115610cc457610cc3610c2e565b5b610ccd82610c1d565b9050602081019050919050565b82818337600083830152505050565b6000610cfc610cf784610ca9565b610c8e565b905082815260208101848484011115610d1857610d17610c18565b5b610d23848285610cda565b509392505050565b600082601f830112610d4057610d3f610c13565b5b8135610d50848260208601610ce9565b91505092915050565b600080600060608486031215610d7257610d71610ae5565b5b600084013567ffffffffffffffff811115610d9057610d8f610aea565b5b610d9c86828701610d2b565b9350506020610dad86828701610b9b565b9250506040610dbe86828701610b10565b9150509250925092565b610dd181610aef565b82525050565b6000602082019050610dec6000830184610dc8565b92915050565b610dfb81610b72565b82525050565b600060a082019050610e166000830188610dc8565b610e236020830187610dc8565b610e306040830186610dc8565b610e3d6060830185610dc8565b610e4a6080830184610df2565b9695505050505050565b6000602082019050610e696000830184610df2565b92915050565b600081519050919050565b600082825260208201905092915050565b60005b83811015610ea9578082015181840152602081019050610e8e565b83811115610eb8576000848401525b50505050565b6000610ec982610e6f565b610ed38185610e7a565b9350610ee3818560208601610e8b565b610eec81610c1d565b840191505092915050565b600060a0820190508181036000830152610f118188610ebe565b9050610f206020830187610df2565b610f2d6040830186610dc8565b610f3a6060830185610be9565b610f476080830184610dc8565b9695505050505050565b7f4f6e6c79206d616e616765722063616e20616363657373000000000000000000600082015250565b6000610f87601783610e7a565b9150610f9282610f51565b602082019050919050565b60006020820190508181036000830152610fb681610f7a565b9050919050565b7f4e487b7100000000000000000000000000000000000000000000000000000000600052603260045260246000fd5b7f4e487b7100000000000000000000000000000000000000000000000000000000600052601260045260246000fd5b7f4e487b7100000000000000000000000000000000000000000000000000000000600052601160045260246000fd5b600061105582610aef565b915061106083610aef565b9250826110705761106f610fec565b5b828204905092915050565b7f4e487b7100000000000000000000000000000000000000000000000000000000600052602260045260246000fd5b600060028204905060018216806110c257607f821691505b6020821081036110d5576110d461107b565b5b50919050565b7f546865206d616e616765722063616e206e6f7420616363657373000000000000600082015250565b6000611111601a83610e7a565b915061111c826110db565b602082019050919050565b6000602082019050818103600083015261114081611104565b9050919050565b600061115282610aef565b91507fffffffffffffffffffffffffffffffffffffffffffffffffffffffffffffffff82036111845761118361101b565b5b60018201905091905056fea2646970667358221220094d234ff93901d758276b3612e43472dd2e3903e30201b77c6384c4d4987ed764736f6c634300080d0033","opcodes":"PUSH1 0x80 PUSH1 0x40 MSTORE CALLVALUE DUP1 ISZERO PUSH3 0x11 JUMPI PUSH1 0x0 DUP1 REVERT JUMPDEST POP PUSH1 0x40 MLOAD PUSH3 0x1347 CODESIZE SUB DUP1 PUSH3 0x1347 DUP4 CODECOPY DUP2 DUP2 ADD PUSH1 0x40 MSTORE DUP2 ADD SWAP1 PUSH3 0x37 SWAP2 SWAP1 PUSH3 0x12B JUMP JUMPDEST DUP2 PUSH1 0x0 DUP1 PUSH2 0x100 EXP DUP2 SLOAD DUP2 PUSH20 0xFFFFFFFFFFFFFFFFFFFFFFFFFFFFFFFFFFFFFFFF MUL NOT AND SWAP1 DUP4 PUSH20 0xFFFFFFFFFFFFFFFFFFFFFFFFFFFFFFFFFFFFFFFF AND MUL OR SWAP1 SSTORE POP DUP1 PUSH1 0x1 DUP2 SWAP1 SSTORE POP POP POP PUSH3 0x172 JUMP JUMPDEST PUSH1 0x0 DUP1 REVERT JUMPDEST PUSH1 0x0 PUSH20 0xFFFFFFFFFFFFFFFFFFFFFFFFFFFFFFFFFFFFFFFF DUP3 AND SWAP1 POP SWAP2 SWAP1 POP JUMP JUMPDEST PUSH1 0x0 PUSH3 0xB8 DUP3 PUSH3 0x8B JUMP JUMPDEST SWAP1 POP SWAP2 SWAP1 POP JUMP JUMPDEST PUSH3 0xCA DUP2 PUSH3 0xAB JUMP JUMPDEST DUP2 EQ PUSH3 0xD6 JUMPI PUSH1 0x0 DUP1 REVERT JUMPDEST POP JUMP JUMPDEST PUSH1 0x0 DUP2 MLOAD SWAP1 POP PUSH3 0xEA DUP2 PUSH3 0xBF JUMP JUMPDEST SWAP3 SWAP2 POP POP JUMP JUMPDEST PUSH1 0x0 DUP2 SWAP1 POP SWAP2 SWAP1 POP JUMP JUMPDEST PUSH3 0x105 DUP2 PUSH3 0xF0 JUMP JUMPDEST DUP2 EQ PUSH3 0x111 JUMPI PUSH1 0x0 DUP1 REVERT JUMPDEST POP JUMP JUMPDEST PUSH1 0x0 DUP2 MLOAD SWAP1 POP PUSH3 0x125 DUP2 PUSH3 0xFA JUMP JUMPDEST SWAP3 SWAP2 POP POP JUMP JUMPDEST PUSH1 0x0 DUP1 PUSH1 0x40 DUP4 DUP6 SUB SLT ISZERO PUSH3 0x145 JUMPI PUSH3 0x144 PUSH3 0x86 JUMP JUMPDEST JUMPDEST PUSH1 0x0 PUSH3 0x155 DUP6 DUP3 DUP7 ADD PUSH3 0xD9 JUMP JUMPDEST SWAP3 POP POP PUSH1 0x20 PUSH3 0x168 DUP6 DUP3 DUP7 ADD PUSH3 0x114 JUMP JUMPDEST SWAP2 POP POP SWAP3 POP SWAP3 SWAP1 POP JUMP JUMPDEST PUSH2 0x11C5 DUP1 PUSH3 0x182 PUSH1 0x0 CODECOPY PUSH1 0x0 RETURN INVALID PUSH1 0x80 PUSH1 0x40 MSTORE PUSH1 0x4 CALLDATASIZE LT PUSH2 0x9C JUMPI PUSH1 0x0 CALLDATALOAD PUSH1 0xE0 SHR DUP1 PUSH4 0x481C6A75 GT PUSH2 0x64 JUMPI DUP1 PUSH4 0x481C6A75 EQ PUSH2 0x18A JUMPI DUP1 PUSH4 0x81D12C58 EQ PUSH2 0x1B5 JUMPI DUP1 PUSH4 0x82FDE093 EQ PUSH2 0x1F6 JUMPI DUP1 PUSH4 0x937E09B1 EQ PUSH2 0x221 JUMPI DUP1 PUSH4 0xD7BB99BA EQ PUSH2 0x24C JUMPI DUP1 PUSH4 0xD7D1BBDB EQ PUSH2 0x256 JUMPI PUSH2 0x9C JUMP JUMPDEST DUP1 PUSH4 0x3441006 EQ PUSH2 0xA1 JUMPI DUP1 PUSH4 0xA144391 EQ PUSH2 0xCA JUMPI DUP1 PUSH4 0x1B16BB5C EQ PUSH2 0x107 JUMPI DUP1 PUSH4 0x3410452A EQ PUSH2 0x130 JUMPI DUP1 PUSH4 0x4051DDAC EQ PUSH2 0x15B JUMPI JUMPDEST PUSH1 0x0 DUP1 REVERT JUMPDEST CALLVALUE DUP1 ISZERO PUSH2 0xAD JUMPI PUSH1 0x0 DUP1 REVERT JUMPDEST POP PUSH2 0xC8 PUSH1 0x4 DUP1 CALLDATASIZE SUB DUP2 ADD SWAP1 PUSH2 0xC3 SWAP2 SWAP1 PUSH2 0xB25 JUMP JUMPDEST PUSH2 0x27F JUMP JUMPDEST STOP JUMPDEST CALLVALUE DUP1 ISZERO PUSH2 0xD6 JUMPI PUSH1 0x0 DUP1 REVERT JUMPDEST POP PUSH2 0xF1 PUSH1 0x4 DUP1 CALLDATASIZE SUB DUP2 ADD SWAP1 PUSH2 0xEC SWAP2 SWAP1 PUSH2 0xBB0 JUMP JUMPDEST PUSH2 0x3FD JUMP JUMPDEST PUSH1 0x40 MLOAD PUSH2 0xFE SWAP2 SWAP1 PUSH2 0xBF8 JUMP JUMPDEST PUSH1 0x40 MLOAD DUP1 SWAP2 SUB SWAP1 RETURN JUMPDEST CALLVALUE DUP1 ISZERO PUSH2 0x113 JUMPI PUSH1 0x0 DUP1 REVERT JUMPDEST POP PUSH2 0x12E PUSH1 0x4 DUP1 CALLDATASIZE SUB DUP2 ADD SWAP1 PUSH2 0x129 SWAP2 SWAP1 PUSH2 0xD59 JUMP JUMPDEST PUSH2 0x41D JUMP JUMPDEST STOP JUMPDEST CALLVALUE DUP1 ISZERO PUSH2 0x13C JUMPI PUSH1 0x0 DUP1 REVERT JUMPDEST POP PUSH2 0x145 PUSH2 0x561 JUMP JUMPDEST PUSH1 0x40 MLOAD PUSH2 0x152 SWAP2 SWAP1 PUSH2 0xDD7 JUMP JUMPDEST PUSH1 0x40 MLOAD DUP1 SWAP2 SUB SWAP1 RETURN JUMPDEST CALLVALUE DUP1 ISZERO PUSH2 0x167 JUMPI PUSH1 0x0 DUP1 REVERT JUMPDEST POP PUSH2 0x170 PUSH2 0x56E JUMP JUMPDEST PUSH1 0x40 MLOAD PUSH2 0x181 SWAP6 SWAP5 SWAP4 SWAP3 SWAP2 SWAP1 PUSH2 0xE01 JUMP JUMPDEST PUSH1 0x40 MLOAD DUP1 SWAP2 SUB SWAP1 RETURN JUMPDEST CALLVALUE DUP1 ISZERO PUSH2 0x196 JUMPI PUSH1 0x0 DUP1 REVERT JUMPDEST POP PUSH2 0x19F PUSH2 0x5B5 JUMP JUMPDEST PUSH1 0x40 MLOAD PUSH2 0x1AC SWAP2 SWAP1 PUSH2 0xE54 JUMP JUMPDEST PUSH1 0x40 MLOAD DUP1 SWAP2 SUB SWAP1 RETURN JUMPDEST CALLVALUE DUP1 ISZERO PUSH2 0x1C1 JUMPI PUSH1 0x0 DUP1 REVERT JUMPDEST POP PUSH2 0x1DC PUSH1 0x4 DUP1 CALLDATASIZE SUB DUP2 ADD SWAP1 PUSH2 0x1D7 SWAP2 SWAP1 PUSH2 0xB25 JUMP JUMPDEST PUSH2 0x5D9 JUMP JUMPDEST PUSH1 0x40 MLOAD PUSH2 0x1ED SWAP6 SWAP5 SWAP4 SWAP3 SWAP2 SWAP1 PUSH2 0xEF7 JUMP JUMPDEST PUSH1 0x40 MLOAD DUP1 SWAP2 SUB SWAP1 RETURN JUMPDEST CALLVALUE DUP1 ISZERO PUSH2 0x202 JUMPI PUSH1 0x0 DUP1 REVERT JUMPDEST POP PUSH2 0x20B PUSH2 0x6D4 JUMP JUMPDEST PUSH1 0x40 MLOAD PUSH2 0x218 SWAP2 SWAP1 PUSH2 0xDD7 JUMP JUMPDEST PUSH1 0x40 MLOAD DUP1 SWAP2 SUB SWAP1 RETURN JUMPDEST CALLVALUE DUP1 ISZERO PUSH2 0x22D JUMPI PUSH1 0x0 DUP1 REVERT JUMPDEST POP PUSH2 0x236 PUSH2 0x6DA JUMP JUMPDEST PUSH1 0x40 MLOAD PUSH2 0x243 SWAP2 SWAP1 PUSH2 0xDD7 JUMP JUMPDEST PUSH1 0x40 MLOAD DUP1 SWAP2 SUB SWAP1 RETURN JUMPDEST PUSH2 0x254 PUSH2 0x6E0 JUMP JUMPDEST STOP JUMPDEST CALLVALUE DUP1 ISZERO PUSH2 0x262 JUMPI PUSH1 0x0 DUP1 REVERT JUMPDEST POP PUSH2 0x27D PUSH1 0x4 DUP1 CALLDATASIZE SUB DUP2 ADD SWAP1 PUSH2 0x278 SWAP2 SWAP1 PUSH2 0xB25 JUMP JUMPDEST PUSH2 0x841 JUMP JUMPDEST STOP JUMPDEST CALLER PUSH20 0xFFFFFFFFFFFFFFFFFFFFFFFFFFFFFFFFFFFFFFFF AND PUSH1 0x0 DUP1 SLOAD SWAP1 PUSH2 0x100 EXP SWAP1 DIV PUSH20 0xFFFFFFFFFFFFFFFFFFFFFFFFFFFFFFFFFFFFFFFF AND PUSH20 0xFFFFFFFFFFFFFFFFFFFFFFFFFFFFFFFFFFFFFFFF AND EQ PUSH2 0x30D JUMPI PUSH1 0x40 MLOAD PUSH32 0x8C379A000000000000000000000000000000000000000000000000000000000 DUP2 MSTORE PUSH1 0x4 ADD PUSH2 0x304 SWAP1 PUSH2 0xF9D JUMP JUMPDEST PUSH1 0x40 MLOAD DUP1 SWAP2 SUB SWAP1 REVERT JUMPDEST PUSH1 0x0 PUSH1 0x4 DUP3 DUP2 SLOAD DUP2 LT PUSH2 0x323 JUMPI PUSH2 0x322 PUSH2 0xFBD JUMP JUMPDEST JUMPDEST SWAP1 PUSH1 0x0 MSTORE PUSH1 0x20 PUSH1 0x0 KECCAK256 SWAP1 PUSH1 0x6 MUL ADD SWAP1 POP DUP1 PUSH1 0x3 ADD PUSH1 0x0 SWAP1 SLOAD SWAP1 PUSH2 0x100 EXP SWAP1 DIV PUSH1 0xFF AND ISZERO PUSH2 0x34F JUMPI PUSH1 0x0 DUP1 REVERT JUMPDEST PUSH1 0x2 PUSH1 0x3 SLOAD PUSH2 0x35E SWAP2 SWAP1 PUSH2 0x104A JUMP JUMPDEST DUP2 PUSH1 0x5 ADD SLOAD GT PUSH2 0x36D JUMPI PUSH1 0x0 DUP1 REVERT JUMPDEST DUP1 PUSH1 0x1 ADD PUSH1 0x0 SWAP1 SLOAD SWAP1 PUSH2 0x100 EXP SWAP1 DIV PUSH20 0xFFFFFFFFFFFFFFFFFFFFFFFFFFFFFFFFFFFFFFFF AND PUSH20 0xFFFFFFFFFFFFFFFFFFFFFFFFFFFFFFFFFFFFFFFF AND PUSH2 0x8FC DUP3 PUSH1 0x2 ADD SLOAD SWAP1 DUP2 ISZERO MUL SWAP1 PUSH1 0x40 MLOAD PUSH1 0x0 PUSH1 0x40 MLOAD DUP1 DUP4 SUB DUP2 DUP6 DUP9 DUP9 CALL SWAP4 POP POP POP POP ISZERO DUP1 ISZERO PUSH2 0x3DB JUMPI RETURNDATASIZE PUSH1 0x0 DUP1 RETURNDATACOPY RETURNDATASIZE PUSH1 0x0 REVERT JUMPDEST POP PUSH1 0x1 DUP2 PUSH1 0x3 ADD PUSH1 0x0 PUSH2 0x100 EXP DUP2 SLOAD DUP2 PUSH1 0xFF MUL NOT AND SWAP1 DUP4 ISZERO ISZERO MUL OR SWAP1 SSTORE POP POP POP JUMP JUMPDEST PUSH1 0x2 PUSH1 0x20 MSTORE DUP1 PUSH1 0x0 MSTORE PUSH1 0x40 PUSH1 0x0 KECCAK256 PUSH1 0x0 SWAP2 POP SLOAD SWAP1 PUSH2 0x100 EXP SWAP1 DIV PUSH1 0xFF AND DUP2 JUMP JUMPDEST CALLER PUSH20 0xFFFFFFFFFFFFFFFFFFFFFFFFFFFFFFFFFFFFFFFF AND PUSH1 0x0 DUP1 SLOAD SWAP1 PUSH2 0x100 EXP SWAP1 DIV PUSH20 0xFFFFFFFFFFFFFFFFFFFFFFFFFFFFFFFFFFFFFFFF AND PUSH20 0xFFFFFFFFFFFFFFFFFFFFFFFFFFFFFFFFFFFFFFFF AND EQ PUSH2 0x4AB JUMPI PUSH1 0x40 MLOAD PUSH32 0x8C379A000000000000000000000000000000000000000000000000000000000 DUP2 MSTORE PUSH1 0x4 ADD PUSH2 0x4A2 SWAP1 PUSH2 0xF9D JUMP JUMPDEST PUSH1 0x40 MLOAD DUP1 SWAP2 SUB SWAP1 REVERT JUMPDEST PUSH1 0x0 PUSH1 0x4 PUSH1 0x1 DUP2 PUSH1 0x1 DUP2 SLOAD ADD DUP1 DUP3 SSTORE DUP1 SWAP2 POP POP SUB SWAP1 PUSH1 0x0 MSTORE PUSH1 0x20 PUSH1 0x0 KECCAK256 SWAP1 PUSH1 0x6 MUL ADD SWAP1 POP DUP4 DUP2 PUSH1 0x0 ADD SWAP1 DUP1 MLOAD SWAP1 PUSH1 0x20 ADD SWAP1 PUSH2 0x4E7 SWAP3 SWAP2 SWAP1 PUSH2 0xA38 JUMP JUMPDEST POP DUP3 DUP2 PUSH1 0x1 ADD PUSH1 0x0 PUSH2 0x100 EXP DUP2 SLOAD DUP2 PUSH20 0xFFFFFFFFFFFFFFFFFFFFFFFFFFFFFFFFFFFFFFFF MUL NOT AND SWAP1 DUP4 PUSH20 0xFFFFFFFFFFFFFFFFFFFFFFFFFFFFFFFFFFFFFFFF AND MUL OR SWAP1 SSTORE POP DUP2 DUP2 PUSH1 0x2 ADD DUP2 SWAP1 SSTORE POP PUSH1 0x0 DUP2 PUSH1 0x3 ADD PUSH1 0x0 PUSH2 0x100 EXP DUP2 SLOAD DUP2 PUSH1 0xFF MUL NOT AND SWAP1 DUP4 ISZERO ISZERO MUL OR SWAP1 SSTORE POP PUSH1 0x0 DUP2 PUSH1 0x5 ADD DUP2 SWAP1 SSTORE POP POP POP POP POP JUMP JUMPDEST PUSH1 0x0 PUSH1 0x4 DUP1 SLOAD SWAP1 POP SWAP1 POP SWAP1 JUMP JUMPDEST PUSH1 0x0 DUP1 PUSH1 0x0 DUP1 PUSH1 0x0 PUSH1 0x1 SLOAD SELFBALANCE PUSH1 0x4 DUP1 SLOAD SWAP1 POP PUSH1 0x3 SLOAD PUSH1 0x0 DUP1 SLOAD SWAP1 PUSH2 0x100 EXP SWAP1 DIV PUSH20 0xFFFFFFFFFFFFFFFFFFFFFFFFFFFFFFFFFFFFFFFF AND SWAP5 POP SWAP5 POP SWAP5 POP SWAP5 POP SWAP5 POP SWAP1 SWAP2 SWAP3 SWAP4 SWAP5 JUMP JUMPDEST PUSH1 0x0 DUP1 SLOAD SWAP1 PUSH2 0x100 EXP SWAP1 DIV PUSH20 0xFFFFFFFFFFFFFFFFFFFFFFFFFFFFFFFFFFFFFFFF AND DUP2 JUMP JUMPDEST PUSH1 0x4 DUP2 DUP2 SLOAD DUP2 LT PUSH2 0x5E9 JUMPI PUSH1 0x0 DUP1 REVERT JUMPDEST SWAP1 PUSH1 0x0 MSTORE PUSH1 0x20 PUSH1 0x0 KECCAK256 SWAP1 PUSH1 0x6 MUL ADD PUSH1 0x0 SWAP2 POP SWAP1 POP DUP1 PUSH1 0x0 ADD DUP1 SLOAD PUSH2 0x60C SWAP1 PUSH2 0x10AA JUMP JUMPDEST DUP1 PUSH1 0x1F ADD PUSH1 0x20 DUP1 SWAP2 DIV MUL PUSH1 0x20 ADD PUSH1 0x40 MLOAD SWAP1 DUP2 ADD PUSH1 0x40 MSTORE DUP1 SWAP3 SWAP2 SWAP1 DUP2 DUP2 MSTORE PUSH1 0x20 ADD DUP3 DUP1 SLOAD PUSH2 0x638 SWAP1 PUSH2 0x10AA JUMP JUMPDEST DUP1 ISZERO PUSH2 0x685 JUMPI DUP1 PUSH1 0x1F LT PUSH2 0x65A JUMPI PUSH2 0x100 DUP1 DUP4 SLOAD DIV MUL DUP4 MSTORE SWAP2 PUSH1 0x20 ADD SWAP2 PUSH2 0x685 JUMP JUMPDEST DUP3 ADD SWAP2 SWAP1 PUSH1 0x0 MSTORE PUSH1 0x20 PUSH1 0x0 KECCAK256 SWAP1 JUMPDEST DUP2 SLOAD DUP2 MSTORE SWAP1 PUSH1 0x1 ADD SWAP1 PUSH1 0x20 ADD DUP1 DUP4 GT PUSH2 0x668 JUMPI DUP3 SWAP1 SUB PUSH1 0x1F AND DUP3 ADD SWAP2 JUMPDEST POP POP POP POP POP SWAP1 DUP1 PUSH1 0x1 ADD PUSH1 0x0 SWAP1 SLOAD SWAP1 PUSH2 0x100 EXP SWAP1 DIV PUSH20 0xFFFFFFFFFFFFFFFFFFFFFFFFFFFFFFFFFFFFFFFF AND SWAP1 DUP1 PUSH1 0x2 ADD SLOAD SWAP1 DUP1 PUSH1 0x3 ADD PUSH1 0x0 SWAP1 SLOAD SWAP1 PUSH2 0x100 EXP SWAP1 DIV PUSH1 0xFF AND SWAP1 DUP1 PUSH1 0x5 ADD SLOAD SWAP1 POP DUP6 JUMP JUMPDEST PUSH1 0x3 SLOAD DUP2 JUMP JUMPDEST PUSH1 0x1 SLOAD DUP2 JUMP JUMPDEST CALLER PUSH20 0xFFFFFFFFFFFFFFFFFFFFFFFFFFFFFFFFFFFFFFFF AND PUSH1 0x0 DUP1 SLOAD SWAP1 PUSH2 0x100 EXP SWAP1 DIV PUSH20 0xFFFFFFFFFFFFFFFFFFFFFFFFFFFFFFFFFFFFFFFF AND PUSH20 0xFFFFFFFFFFFFFFFFFFFFFFFFFFFFFFFFFFFFFFFF AND SUB PUSH2 0x76E JUMPI PUSH1 0x40 MLOAD PUSH32 0x8C379A000000000000000000000000000000000000000000000000000000000 DUP2 MSTORE PUSH1 0x4 ADD PUSH2 0x765 SWAP1 PUSH2 0x1127 JUMP JUMPDEST PUSH1 0x40 MLOAD DUP1 SWAP2 SUB SWAP1 REVERT JUMPDEST CALLVALUE PUSH1 0x1 SLOAD GT ISZERO PUSH2 0x77D JUMPI PUSH1 0x0 DUP1 REVERT JUMPDEST PUSH1 0x2 PUSH1 0x0 CALLER PUSH20 0xFFFFFFFFFFFFFFFFFFFFFFFFFFFFFFFFFFFFFFFF AND PUSH20 0xFFFFFFFFFFFFFFFFFFFFFFFFFFFFFFFFFFFFFFFF AND DUP2 MSTORE PUSH1 0x20 ADD SWAP1 DUP2 MSTORE PUSH1 0x20 ADD PUSH1 0x0 KECCAK256 PUSH1 0x0 SWAP1 SLOAD SWAP1 PUSH2 0x100 EXP SWAP1 DIV PUSH1 0xFF AND PUSH2 0x83F JUMPI PUSH1 0x1 PUSH1 0x2 PUSH1 0x0 CALLER PUSH20 0xFFFFFFFFFFFFFFFFFFFFFFFFFFFFFFFFFFFFFFFF AND PUSH20 0xFFFFFFFFFFFFFFFFFFFFFFFFFFFFFFFFFFFFFFFF AND DUP2 MSTORE PUSH1 0x20 ADD SWAP1 DUP2 MSTORE PUSH1 0x20 ADD PUSH1 0x0 KECCAK256 PUSH1 0x0 PUSH2 0x100 EXP DUP2 SLOAD DUP2 PUSH1 0xFF MUL NOT AND SWAP1 DUP4 ISZERO ISZERO MUL OR SWAP1 SSTORE POP PUSH1 0x3 PUSH1 0x0 DUP2 SLOAD DUP1 SWAP3 SWAP2 SWAP1 PUSH2 0x839 SWAP1 PUSH2 0x1147 JUMP JUMPDEST SWAP2 SWAP1 POP SSTORE POP JUMPDEST JUMP JUMPDEST CALLER PUSH20 0xFFFFFFFFFFFFFFFFFFFFFFFFFFFFFFFFFFFFFFFF AND PUSH1 0x0 DUP1 SLOAD SWAP1 PUSH2 0x100 EXP SWAP1 DIV PUSH20 0xFFFFFFFFFFFFFFFFFFFFFFFFFFFFFFFFFFFFFFFF AND PUSH20 0xFFFFFFFFFFFFFFFFFFFFFFFFFFFFFFFFFFFFFFFF AND SUB PUSH2 0x8CF JUMPI PUSH1 0x40 MLOAD PUSH32 0x8C379A000000000000000000000000000000000000000000000000000000000 DUP2 MSTORE PUSH1 0x4 ADD PUSH2 0x8C6 SWAP1 PUSH2 0x1127 JUMP JUMPDEST PUSH1 0x40 MLOAD DUP1 SWAP2 SUB SWAP1 REVERT JUMPDEST PUSH1 0x0 PUSH1 0x4 DUP3 DUP2 SLOAD DUP2 LT PUSH2 0x8E5 JUMPI PUSH2 0x8E4 PUSH2 0xFBD JUMP JUMPDEST JUMPDEST SWAP1 PUSH1 0x0 MSTORE PUSH1 0x20 PUSH1 0x0 KECCAK256 SWAP1 PUSH1 0x6 MUL ADD SWAP1 POP PUSH1 0x2 PUSH1 0x0 CALLER PUSH20 0xFFFFFFFFFFFFFFFFFFFFFFFFFFFFFFFFFFFFFFFF AND PUSH20 0xFFFFFFFFFFFFFFFFFFFFFFFFFFFFFFFFFFFFFFFF AND DUP2 MSTORE PUSH1 0x20 ADD SWAP1 DUP2 MSTORE PUSH1 0x20 ADD PUSH1 0x0 KECCAK256 PUSH1 0x0 SWAP1 SLOAD SWAP1 PUSH2 0x100 EXP SWAP1 DIV PUSH1 0xFF AND PUSH2 0x94B JUMPI PUSH1 0x0 DUP1 REVERT JUMPDEST DUP1 PUSH1 0x3 ADD PUSH1 0x0 SWAP1 SLOAD SWAP1 PUSH2 0x100 EXP SWAP1 DIV PUSH1 0xFF AND ISZERO PUSH2 0x967 JUMPI PUSH1 0x0 DUP1 REVERT JUMPDEST DUP1 PUSH1 0x4 ADD PUSH1 0x0 CALLER PUSH20 0xFFFFFFFFFFFFFFFFFFFFFFFFFFFFFFFFFFFFFFFF AND PUSH20 0xFFFFFFFFFFFFFFFFFFFFFFFFFFFFFFFFFFFFFFFF AND DUP2 MSTORE PUSH1 0x20 ADD SWAP1 DUP2 MSTORE PUSH1 0x20 ADD PUSH1 0x0 KECCAK256 PUSH1 0x0 SWAP1 SLOAD SWAP1 PUSH2 0x100 EXP SWAP1 DIV PUSH1 0xFF AND ISZERO PUSH2 0x9C0 JUMPI PUSH1 0x0 DUP1 REVERT JUMPDEST PUSH1 0x1 DUP2 PUSH1 0x4 ADD PUSH1 0x0 CALLER PUSH20 0xFFFFFFFFFFFFFFFFFFFFFFFFFFFFFFFFFFFFFFFF AND PUSH20 0xFFFFFFFFFFFFFFFFFFFFFFFFFFFFFFFFFFFFFFFF AND DUP2 MSTORE PUSH1 0x20 ADD SWAP1 DUP2 MSTORE PUSH1 0x20 ADD PUSH1 0x0 KECCAK256 PUSH1 0x0 PUSH2 0x100 EXP DUP2 SLOAD DUP2 PUSH1 0xFF MUL NOT AND SWAP1 DUP4 ISZERO ISZERO MUL OR SWAP1 SSTORE POP DUP1 PUSH1 0x5 ADD PUSH1 0x0 DUP2 SLOAD DUP1 SWAP3 SWAP2 SWAP1 PUSH2 0xA2F SWAP1 PUSH2 0x1147 JUMP JUMPDEST SWAP2 SWAP1 POP SSTORE POP POP POP JUMP JUMPDEST DUP3 DUP1 SLOAD PUSH2 0xA44 SWAP1 PUSH2 0x10AA JUMP JUMPDEST SWAP1 PUSH1 0x0 MSTORE PUSH1 0x20 PUSH1 0x0 KECCAK256 SWAP1 PUSH1 0x1F ADD PUSH1 0x20 SWAP1 DIV DUP2 ADD SWAP3 DUP3 PUSH2 0xA66 JUMPI PUSH1 0x0 DUP6 SSTORE PUSH2 0xAAD JUMP JUMPDEST DUP3 PUSH1 0x1F LT PUSH2 0xA7F JUMPI DUP1 MLOAD PUSH1 0xFF NOT AND DUP4 DUP1 ADD OR DUP6 SSTORE PUSH2 0xAAD JUMP JUMPDEST DUP3 DUP1 ADD PUSH1 0x1 ADD DUP6 SSTORE DUP3 ISZERO PUSH2 0xAAD JUMPI SWAP2 DUP3 ADD JUMPDEST DUP3 DUP2 GT ISZERO PUSH2 0xAAC JUMPI DUP3 MLOAD DUP3 SSTORE SWAP2 PUSH1 0x20 ADD SWAP2 SWAP1 PUSH1 0x1 ADD SWAP1 PUSH2 0xA91 JUMP JUMPDEST JUMPDEST POP SWAP1 POP PUSH2 0xABA SWAP2 SWAP1 PUSH2 0xABE JUMP JUMPDEST POP SWAP1 JUMP JUMPDEST JUMPDEST DUP1 DUP3 GT ISZERO PUSH2 0xAD7 JUMPI PUSH1 0x0 DUP2 PUSH1 0x0 SWAP1 SSTORE POP PUSH1 0x1 ADD PUSH2 0xABF JUMP JUMPDEST POP SWAP1 JUMP JUMPDEST PUSH1 0x0 PUSH1 0x40 MLOAD SWAP1 POP SWAP1 JUMP JUMPDEST PUSH1 0x0 DUP1 REVERT JUMPDEST PUSH1 0x0 DUP1 REVERT JUMPDEST PUSH1 0x0 DUP2 SWAP1 POP SWAP2 SWAP1 POP JUMP JUMPDEST PUSH2 0xB02 DUP2 PUSH2 0xAEF JUMP JUMPDEST DUP2 EQ PUSH2 0xB0D JUMPI PUSH1 0x0 DUP1 REVERT JUMPDEST POP JUMP JUMPDEST PUSH1 0x0 DUP2 CALLDATALOAD SWAP1 POP PUSH2 0xB1F DUP2 PUSH2 0xAF9 JUMP JUMPDEST SWAP3 SWAP2 POP POP JUMP JUMPDEST PUSH1 0x0 PUSH1 0x20 DUP3 DUP5 SUB SLT ISZERO PUSH2 0xB3B JUMPI PUSH2 0xB3A PUSH2 0xAE5 JUMP JUMPDEST JUMPDEST PUSH1 0x0 PUSH2 0xB49 DUP5 DUP3 DUP6 ADD PUSH2 0xB10 JUMP JUMPDEST SWAP2 POP POP SWAP3 SWAP2 POP POP JUMP JUMPDEST PUSH1 0x0 PUSH20 0xFFFFFFFFFFFFFFFFFFFFFFFFFFFFFFFFFFFFFFFF DUP3 AND SWAP1 POP SWAP2 SWAP1 POP JUMP JUMPDEST PUSH1 0x0 PUSH2 0xB7D DUP3 PUSH2 0xB52 JUMP JUMPDEST SWAP1 POP SWAP2 SWAP1 POP JUMP JUMPDEST PUSH2 0xB8D DUP2 PUSH2 0xB72 JUMP JUMPDEST DUP2 EQ PUSH2 0xB98 JUMPI PUSH1 0x0 DUP1 REVERT JUMPDEST POP JUMP JUMPDEST PUSH1 0x0 DUP2 CALLDATALOAD SWAP1 POP PUSH2 0xBAA DUP2 PUSH2 0xB84 JUMP JUMPDEST SWAP3 SWAP2 POP POP JUMP JUMPDEST PUSH1 0x0 PUSH1 0x20 DUP3 DUP5 SUB SLT ISZERO PUSH2 0xBC6 JUMPI PUSH2 0xBC5 PUSH2 0xAE5 JUMP JUMPDEST JUMPDEST PUSH1 0x0 PUSH2 0xBD4 DUP5 DUP3 DUP6 ADD PUSH2 0xB9B JUMP JUMPDEST SWAP2 POP POP SWAP3 SWAP2 POP POP JUMP JUMPDEST PUSH1 0x0 DUP2 ISZERO ISZERO SWAP1 POP SWAP2 SWAP1 POP JUMP JUMPDEST PUSH2 0xBF2 DUP2 PUSH2 0xBDD JUMP JUMPDEST DUP3 MSTORE POP POP JUMP JUMPDEST PUSH1 0x0 PUSH1 0x20 DUP3 ADD SWAP1 POP PUSH2 0xC0D PUSH1 0x0 DUP4 ADD DUP5 PUSH2 0xBE9 JUMP JUMPDEST SWAP3 SWAP2 POP POP JUMP JUMPDEST PUSH1 0x0 DUP1 REVERT JUMPDEST PUSH1 0x0 DUP1 REVERT JUMPDEST PUSH1 0x0 PUSH1 0x1F NOT PUSH1 0x1F DUP4 ADD AND SWAP1 POP SWAP2 SWAP1 POP JUMP JUMPDEST PUSH32 0x4E487B7100000000000000000000000000000000000000000000000000000000 PUSH1 0x0 MSTORE PUSH1 0x41 PUSH1 0x4 MSTORE PUSH1 0x24 PUSH1 0x0 REVERT JUMPDEST PUSH2 0xC66 DUP3 PUSH2 0xC1D JUMP JUMPDEST DUP2 ADD DUP2 DUP2 LT PUSH8 0xFFFFFFFFFFFFFFFF DUP3 GT OR ISZERO PUSH2 0xC85 JUMPI PUSH2 0xC84 PUSH2 0xC2E JUMP JUMPDEST JUMPDEST DUP1 PUSH1 0x40 MSTORE POP POP POP JUMP JUMPDEST PUSH1 0x0 PUSH2 0xC98 PUSH2 0xADB JUMP JUMPDEST SWAP1 POP PUSH2 0xCA4 DUP3 DUP3 PUSH2 0xC5D JUMP JUMPDEST SWAP2 SWAP1 POP JUMP JUMPDEST PUSH1 0x0 PUSH8 0xFFFFFFFFFFFFFFFF DUP3 GT ISZERO PUSH2 0xCC4 JUMPI PUSH2 0xCC3 PUSH2 0xC2E JUMP JUMPDEST JUMPDEST PUSH2 0xCCD DUP3 PUSH2 0xC1D JUMP JUMPDEST SWAP1 POP PUSH1 0x20 DUP2 ADD SWAP1 POP SWAP2 SWAP1 POP JUMP JUMPDEST DUP3 DUP2 DUP4 CALLDATACOPY PUSH1 0x0 DUP4 DUP4 ADD MSTORE POP POP POP JUMP JUMPDEST PUSH1 0x0 PUSH2 0xCFC PUSH2 0xCF7 DUP5 PUSH2 0xCA9 JUMP JUMPDEST PUSH2 0xC8E JUMP JUMPDEST SWAP1 POP DUP3 DUP2 MSTORE PUSH1 0x20 DUP2 ADD DUP5 DUP5 DUP5 ADD GT ISZERO PUSH2 0xD18 JUMPI PUSH2 0xD17 PUSH2 0xC18 JUMP JUMPDEST JUMPDEST PUSH2 0xD23 DUP5 DUP3 DUP6 PUSH2 0xCDA JUMP JUMPDEST POP SWAP4 SWAP3 POP POP POP JUMP JUMPDEST PUSH1 0x0 DUP3 PUSH1 0x1F DUP4 ADD SLT PUSH2 0xD40 JUMPI PUSH2 0xD3F PUSH2 0xC13 JUMP JUMPDEST JUMPDEST DUP2 CALLDATALOAD PUSH2 0xD50 DUP5 DUP3 PUSH1 0x20 DUP7 ADD PUSH2 0xCE9 JUMP JUMPDEST SWAP2 POP POP SWAP3 SWAP2 POP POP JUMP JUMPDEST PUSH1 0x0 DUP1 PUSH1 0x0 PUSH1 0x60 DUP5 DUP7 SUB SLT ISZERO PUSH2 0xD72 JUMPI PUSH2 0xD71 PUSH2 0xAE5 JUMP JUMPDEST JUMPDEST PUSH1 0x0 DUP5 ADD CALLDATALOAD PUSH8 0xFFFFFFFFFFFFFFFF DUP2 GT ISZERO PUSH2 0xD90 JUMPI PUSH2 0xD8F PUSH2 0xAEA JUMP JUMPDEST JUMPDEST PUSH2 0xD9C DUP7 DUP3 DUP8 ADD PUSH2 0xD2B JUMP JUMPDEST SWAP4 POP POP PUSH1 0x20 PUSH2 0xDAD DUP7 DUP3 DUP8 ADD PUSH2 0xB9B JUMP JUMPDEST SWAP3 POP POP PUSH1 0x40 PUSH2 0xDBE DUP7 DUP3 DUP8 ADD PUSH2 0xB10 JUMP JUMPDEST SWAP2 POP POP SWAP3 POP SWAP3 POP SWAP3 JUMP JUMPDEST PUSH2 0xDD1 DUP2 PUSH2 0xAEF JUMP JUMPDEST DUP3 MSTORE POP POP JUMP JUMPDEST PUSH1 0x0 PUSH1 0x20 DUP3 ADD SWAP1 POP PUSH2 0xDEC PUSH1 0x0 DUP4 ADD DUP5 PUSH2 0xDC8 JUMP JUMPDEST SWAP3 SWAP2 POP POP JUMP JUMPDEST PUSH2 0xDFB DUP2 PUSH2 0xB72 JUMP JUMPDEST DUP3 MSTORE POP POP JUMP JUMPDEST PUSH1 0x0 PUSH1 0xA0 DUP3 ADD SWAP1 POP PUSH2 0xE16 PUSH1 0x0 DUP4 ADD DUP9 PUSH2 0xDC8 JUMP JUMPDEST PUSH2 0xE23 PUSH1 0x20 DUP4 ADD DUP8 PUSH2 0xDC8 JUMP JUMPDEST PUSH2 0xE30 PUSH1 0x40 DUP4 ADD DUP7 PUSH2 0xDC8 JUMP JUMPDEST PUSH2 0xE3D PUSH1 0x60 DUP4 ADD DUP6 PUSH2 0xDC8 JUMP JUMPDEST PUSH2 0xE4A PUSH1 0x80 DUP4 ADD DUP5 PUSH2 0xDF2 JUMP JUMPDEST SWAP7 SWAP6 POP POP POP POP POP POP JUMP JUMPDEST PUSH1 0x0 PUSH1 0x20 DUP3 ADD SWAP1 POP PUSH2 0xE69 PUSH1 0x0 DUP4 ADD DUP5 PUSH2 0xDF2 JUMP JUMPDEST SWAP3 SWAP2 POP POP JUMP JUMPDEST PUSH1 0x0 DUP2 MLOAD SWAP1 POP SWAP2 SWAP1 POP JUMP JUMPDEST PUSH1 0x0 DUP3 DUP3 MSTORE PUSH1 0x20 DUP3 ADD SWAP1 POP SWAP3 SWAP2 POP POP JUMP JUMPDEST PUSH1 0x0 JUMPDEST DUP4 DUP2 LT ISZERO PUSH2 0xEA9 JUMPI DUP1 DUP3 ADD MLOAD DUP2 DUP5 ADD MSTORE PUSH1 0x20 DUP2 ADD SWAP1 POP PUSH2 0xE8E JUMP JUMPDEST DUP4 DUP2 GT ISZERO PUSH2 0xEB8 JUMPI PUSH1 0x0 DUP5 DUP5 ADD MSTORE JUMPDEST POP POP POP POP JUMP JUMPDEST PUSH1 0x0 PUSH2 0xEC9 DUP3 PUSH2 0xE6F JUMP JUMPDEST PUSH2 0xED3 DUP2 DUP6 PUSH2 0xE7A JUMP JUMPDEST SWAP4 POP PUSH2 0xEE3 DUP2 DUP6 PUSH1 0x20 DUP7 ADD PUSH2 0xE8B JUMP JUMPDEST PUSH2 0xEEC DUP2 PUSH2 0xC1D JUMP JUMPDEST DUP5 ADD SWAP2 POP POP SWAP3 SWAP2 POP POP JUMP JUMPDEST PUSH1 0x0 PUSH1 0xA0 DUP3 ADD SWAP1 POP DUP2 DUP2 SUB PUSH1 0x0 DUP4 ADD MSTORE PUSH2 0xF11 DUP2 DUP9 PUSH2 0xEBE JUMP JUMPDEST SWAP1 POP PUSH2 0xF20 PUSH1 0x20 DUP4 ADD DUP8 PUSH2 0xDF2 JUMP JUMPDEST PUSH2 0xF2D PUSH1 0x40 DUP4 ADD DUP7 PUSH2 0xDC8 JUMP JUMPDEST PUSH2 0xF3A PUSH1 0x60 DUP4 ADD DUP6 PUSH2 0xBE9 JUMP JUMPDEST PUSH2 0xF47 PUSH1 0x80 DUP4 ADD DUP5 PUSH2 0xDC8 JUMP JUMPDEST SWAP7 SWAP6 POP POP POP POP POP POP JUMP JUMPDEST PUSH32 0x4F6E6C79206D616E616765722063616E20616363657373000000000000000000 PUSH1 0x0 DUP3 ADD MSTORE POP JUMP JUMPDEST PUSH1 0x0 PUSH2 0xF87 PUSH1 0x17 DUP4 PUSH2 0xE7A JUMP JUMPDEST SWAP2 POP PUSH2 0xF92 DUP3 PUSH2 0xF51 JUMP JUMPDEST PUSH1 0x20 DUP3 ADD SWAP1 POP SWAP2 SWAP1 POP JUMP JUMPDEST PUSH1 0x0 PUSH1 0x20 DUP3 ADD SWAP1 POP DUP2 DUP2 SUB PUSH1 0x0 DUP4 ADD MSTORE PUSH2 0xFB6 DUP2 PUSH2 0xF7A JUMP JUMPDEST SWAP1 POP SWAP2 SWAP1 POP JUMP JUMPDEST PUSH32 0x4E487B7100000000000000000000000000000000000000000000000000000000 PUSH1 0x0 MSTORE PUSH1 0x32 PUSH1 0x4 MSTORE PUSH1 0x24 PUSH1 0x0 REVERT JUMPDEST PUSH32 0x4E487B7100000000000000000000000000000000000000000000000000000000 PUSH1 0x0 MSTORE PUSH1 0x12 PUSH1 0x4 MSTORE PUSH1 0x24 PUSH1 0x0 REVERT JUMPDEST PUSH32 0x4E487B7100000000000000000000000000000000000000000000000000000000 PUSH1 0x0 MSTORE PUSH1 0x11 PUSH1 0x4 MSTORE PUSH1 0x24 PUSH1 0x0 REVERT JUMPDEST PUSH1 0x0 PUSH2 0x1055 DUP3 PUSH2 0xAEF JUMP JUMPDEST SWAP2 POP PUSH2 0x1060 DUP4 PUSH2 0xAEF JUMP JUMPDEST SWAP3 POP DUP3 PUSH2 0x1070 JUMPI PUSH2 0x106F PUSH2 0xFEC JUMP JUMPDEST JUMPDEST DUP3 DUP3 DIV SWAP1 POP SWAP3 SWAP2 POP POP JUMP JUMPDEST PUSH32 0x4E487B7100000000000000000000000000000000000000000000000000000000 PUSH1 0x0 MSTORE PUSH1 0x22 PUSH1 0x4 MSTORE PUSH1 0x24 PUSH1 0x0 REVERT JUMPDEST PUSH1 0x0 PUSH1 0x2 DUP3 DIV SWAP1 POP PUSH1 0x1 DUP3 AND DUP1 PUSH2 0x10C2 JUMPI PUSH1 0x7F DUP3 AND SWAP2 POP JUMPDEST PUSH1 0x20 DUP3 LT DUP2 SUB PUSH2 0x10D5 JUMPI PUSH2 0x10D4 PUSH2 0x107B JUMP JUMPDEST JUMPDEST POP SWAP2 SWAP1 POP JUMP JUMPDEST PUSH32 0x546865206D616E616765722063616E206E6F7420616363657373000000000000 PUSH1 0x0 DUP3 ADD MSTORE POP JUMP JUMPDEST PUSH1 0x0 PUSH2 0x1111 PUSH1 0x1A DUP4 PUSH2 0xE7A JUMP JUMPDEST SWAP2 POP PUSH2 0x111C DUP3 PUSH2 0x10DB JUMP JUMPDEST PUSH1 0x20 DUP3 ADD SWAP1 POP SWAP2 SWAP1 POP JUMP JUMPDEST PUSH1 0x0 PUSH1 0x20 DUP3 ADD SWAP1 POP DUP2 DUP2 SUB PUSH1 0x0 DUP4 ADD MSTORE PUSH2 0x1140 DUP2 PUSH2 0x1104 JUMP JUMPDEST SWAP1 POP SWAP2 SWAP1 POP JUMP JUMPDEST PUSH1 0x0 PUSH2 0x1152 DUP3 PUSH2 0xAEF JUMP JUMPDEST SWAP2 POP PUSH32 0xFFFFFFFFFFFFFFFFFFFFFFFFFFFFFFFFFFFFFFFFFFFFFFFFFFFFFFFFFFFFFFFF DUP3 SUB PUSH2 0x1184 JUMPI PUSH2 0x1183 PUSH2 0x101B JUMP JUMPDEST JUMPDEST PUSH1 0x1 DUP3 ADD SWAP1 POP SWAP2 SWAP1 POP JUMP INVALID LOG2 PUSH5 0x6970667358 0x22 SLT KECCAK256 MULMOD 0x4D 0x23 0x4F 0xF9 CODECOPY ADD 0xD7 PC 0x27 PUSH12 0x3612E43472DD2E3903E30201 0xB7 PUSH29 0x6384C4D4987ED764736F6C634300080D00330000000000000000000000 "},"gasEstimates":{"creation":{"codeDepositCost":"909800","executionCost":"infinite","totalCost":"infinite"},"external":{"approveRequest(uint256)":"infinite","approvers(address)":"2868","approversCount()":"2473","contribute()":"55455","createRequest(string,address,uint256)":"infinite","finalizeRequest(uint256)":"infinite","getRequestsCount()":"2512","getSummary()":"infinite","manager()":"2511","minimumContribution()":"2495","requests(uint256)":"infinite"}},"methodIdentifiers":{"approveRequest(uint256)":"d7d1bbdb","approvers(address)":"0a144391","approversCount()":"82fde093","contribute()":"d7bb99ba","createRequest(string,address,uint256)":"1b16bb5c","finalizeRequest(uint256)":"03441006","getRequestsCount()":"3410452a","getSummary()":"4051ddac","manager()":"481c6a75","minimumContribution()":"937e09b1","requests(uint256)":"81d12c58"}},"storageLayout":{"storage":[{"astId":58,"contract":"Campaign.sol:Campaign","label":"manager","offset":0,"slot":"0","type":"t_address"},{"astId":60,"contract":"Campaign.sol:Campaign","label":"minimumContribution","offset":0,"slot":"1","type":"t_uint256"},{"astId":64,"contract":"Campaign.sol:Campaign","label":"approvers","offset":0,"slot":"2","type":"t_mapping(t_address,t_bool)"},{"astId":66,"contract":"Campaign.sol:Campaign","label":"approversCount","offset":0,"slot":"3","type":"t_uint256"},{"astId":70,"contract":"Campaign.sol:Campaign","label":"requests","offset":0,"slot":"4","type":"t_array(t_struct(Request)56_storage)dyn_storage"}],"types":{"t_address":{"encoding":"inplace","label":"address","numberOfBytes":"20"},"t_array(t_struct(Request)56_storage)dyn_storage":{"base":"t_struct(Request)56_storage","encoding":"dynamic_array","label":"struct Campaign.Request[]","numberOfBytes":"32"},"t_bool":{"encoding":"inplace","label":"bool","numberOfBytes":"1"},"t_mapping(t_address,t_bool)":{"encoding":"mapping","key":"t_address","label":"mapping(address => bool)","numberOfBytes":"32","value":"t_bool"},"t_string_storage":{"encoding":"bytes","label":"string","numberOfBytes":"32"},"t_struct(Request)56_storage":{"encoding":"inplace","label":"struct Campaign.Request","members":[{"astId":43,"contract":"Campaign.sol:Campaign","label":"description","offset":0,"slot":"0","type":"t_string_storage"},{"astId":45,"contract":"Campaign.sol:Campaign","label":"recipient","offset":0,"slot":"1","type":"t_address"},{"astId":47,"contract":"Campaign.sol:Campaign","label":"value","offset":0,"slot":"2","type":"t_uint256"},{"astId":49,"contract":"Campaign.sol:Campaign","label":"complete","offset":0,"slot":"3","type":"t_bool"},{"astId":53,"contract":"Campaign.sol:Campaign","label":"approvals","offset":0,"slot":"4","type":"t_mapping(t_address,t_bool)"},{"astId":55,"contract":"Campaign.sol:Campaign","label":"approvalsCount","offset":0,"slot":"5","type":"t_uint256"}],"numberOfBytes":"192"},"t_uint256":{"encoding":"inplace","label":"uint256","numberOfBytes":"32"}}},"userdoc":{"kind":"user","methods":{},"version":1}}